{
  "contractName": "BotProductRegistryDelegate",
  "abi": [
    {
      "constant": true,
      "inputs": [],
      "name": "botCoin",
      "outputs": [
        {
          "name": "",
          "type": "address"
        }
      ],
      "payable": false,
      "stateMutability": "view",
      "type": "function"
    },
    {
      "constant": true,
      "inputs": [],
      "name": "name",
      "outputs": [
        {
          "name": "",
          "type": "string"
        }
      ],
      "payable": false,
      "stateMutability": "view",
      "type": "function"
    },
    {
      "constant": true,
      "inputs": [],
      "name": "ownerRegistry",
      "outputs": [
        {
          "name": "",
          "type": "address"
        }
      ],
      "payable": false,
      "stateMutability": "view",
      "type": "function"
    },
    {
      "constant": true,
      "inputs": [],
      "name": "totalSupply",
      "outputs": [
        {
          "name": "",
          "type": "uint256"
        }
      ],
      "payable": false,
      "stateMutability": "view",
      "type": "function"
    },
    {
      "constant": false,
      "inputs": [
        {
          "name": "developerId",
          "type": "uint256"
        },
        {
          "name": "botProductAddress",
          "type": "address"
        },
        {
          "name": "dataHash",
          "type": "bytes32"
        },
        {
          "name": "url",
          "type": "bytes32"
        }
      ],
      "name": "createBotEntry",
      "outputs": [],
      "payable": false,
      "stateMutability": "nonpayable",
      "type": "function"
    },
    {
      "constant": true,
      "inputs": [
        {
          "name": "botEntryId",
          "type": "uint256"
        }
      ],
      "name": "getBotEntry",
      "outputs": [
        {
          "name": "_owner",
          "type": "address"
        },
        {
          "name": "_botEntryAddress",
          "type": "address"
        },
        {
          "name": "_data",
          "type": "bytes32"
        },
        {
          "name": "_url",
          "type": "bytes32"
        }
      ],
      "payable": false,
      "stateMutability": "view",
      "type": "function"
    },
    {
      "constant": true,
      "inputs": [
        {
          "name": "_entryId",
          "type": "uint256"
        }
      ],
      "name": "approvalStatus",
      "outputs": [
        {
          "name": "",
          "type": "bool"
        }
      ],
      "payable": false,
      "stateMutability": "view",
      "type": "function"
    },
    {
      "constant": true,
      "inputs": [
        {
          "name": "_tokenId",
          "type": "uint256"
        }
      ],
      "name": "ownerOf",
      "outputs": [
        {
          "name": "",
          "type": "uint256"
        }
      ],
      "payable": false,
      "stateMutability": "view",
      "type": "function"
    },
    {
      "constant": true,
      "inputs": [],
      "name": "tallaWallet",
      "outputs": [
        {
          "name": "",
          "type": "address"
        }
      ],
      "payable": false,
      "stateMutability": "view",
      "type": "function"
    },
    {
      "constant": false,
      "inputs": [
        {
          "name": "_entryId",
          "type": "uint256"
        }
      ],
      "name": "grantApproval",
      "outputs": [],
      "payable": false,
      "stateMutability": "nonpayable",
      "type": "function"
    },
    {
      "constant": true,
      "inputs": [
        {
          "name": "botProductId",
          "type": "uint256"
        }
      ],
      "name": "getBotProduct",
      "outputs": [
        {
          "name": "_owner",
          "type": "address"
        },
        {
          "name": "_botEntryAddress",
          "type": "address"
        },
        {
          "name": "_data",
          "type": "bytes32"
        },
        {
          "name": "_url",
          "type": "bytes32"
        }
      ],
      "payable": false,
      "stateMutability": "view",
      "type": "function"
    },
    {
      "constant": true,
      "inputs": [
        {
          "name": "_entryId",
          "type": "uint256"
        }
      ],
      "name": "active",
      "outputs": [
        {
          "name": "",
          "type": "bool"
        }
      ],
      "payable": false,
      "stateMutability": "view",
      "type": "function"
    },
    {
      "constant": false,
      "inputs": [
        {
          "name": "developerId",
          "type": "uint256"
        },
        {
          "name": "botProductAddress",
          "type": "address"
        },
        {
          "name": "dataHash",
          "type": "bytes32"
        },
        {
          "name": "url",
          "type": "bytes32"
        }
      ],
      "name": "createBotProduct",
      "outputs": [],
      "payable": false,
      "stateMutability": "nonpayable",
      "type": "function"
    },
    {
      "constant": true,
      "inputs": [],
      "name": "getOwner",
      "outputs": [
        {
          "name": "",
          "type": "address"
        }
      ],
      "payable": false,
      "stateMutability": "view",
      "type": "function"
    },
    {
      "constant": false,
      "inputs": [
        {
          "name": "_entryId",
          "type": "uint256"
        }
      ],
      "name": "deactivate",
      "outputs": [],
      "payable": false,
      "stateMutability": "nonpayable",
      "type": "function"
    },
    {
      "constant": true,
      "inputs": [
        {
          "name": "_minter",
          "type": "address"
        },
        {
          "name": "_botProductId",
          "type": "uint256"
        }
      ],
      "name": "mintingAllowed",
      "outputs": [
        {
          "name": "",
          "type": "bool"
        }
      ],
      "payable": false,
      "stateMutability": "view",
      "type": "function"
    },
    {
      "constant": true,
      "inputs": [
        {
          "name": "_ownerTokenId",
          "type": "uint256"
        }
      ],
      "name": "balanceOf",
      "outputs": [
        {
          "name": "",
          "type": "uint256"
        }
      ],
      "payable": false,
      "stateMutability": "view",
      "type": "function"
    },
    {
      "constant": true,
      "inputs": [
        {
          "name": "_ownerTokenId",
          "type": "uint256"
        }
      ],
      "name": "tokensOf",
      "outputs": [
        {
          "name": "",
          "type": "uint256[]"
        }
      ],
      "payable": false,
      "stateMutability": "view",
      "type": "function"
    },
    {
      "constant": false,
      "inputs": [
        {
          "name": "entryPrice",
          "type": "uint256"
        }
      ],
      "name": "setEntryPrice",
      "outputs": [],
      "payable": false,
      "stateMutability": "nonpayable",
      "type": "function"
    },
    {
      "constant": false,
      "inputs": [
        {
          "name": "_entryId",
          "type": "uint256"
        }
      ],
      "name": "revokeApproval",
      "outputs": [],
      "payable": false,
      "stateMutability": "nonpayable",
      "type": "function"
    },
    {
      "constant": false,
      "inputs": [
        {
          "name": "_entryId",
          "type": "uint256"
        }
      ],
      "name": "activate",
      "outputs": [],
      "payable": false,
      "stateMutability": "nonpayable",
      "type": "function"
    },
    {
      "constant": true,
      "inputs": [
        {
          "name": "_entryId",
          "type": "uint256"
        }
      ],
      "name": "ownerOfEntry",
      "outputs": [
        {
          "name": "",
          "type": "address"
        }
      ],
      "payable": false,
      "stateMutability": "view",
      "type": "function"
    },
    {
      "constant": true,
      "inputs": [
        {
          "name": "botEntryId",
          "type": "uint256"
        }
      ],
      "name": "botEntryUrl",
      "outputs": [
        {
          "name": "",
          "type": "bytes32"
        }
      ],
      "payable": false,
      "stateMutability": "view",
      "type": "function"
    },
    {
      "constant": false,
      "inputs": [
        {
          "name": "tallaWallet",
          "type": "address"
        }
      ],
      "name": "setTallaWallet",
      "outputs": [],
      "payable": false,
      "stateMutability": "nonpayable",
      "type": "function"
    },
    {
      "constant": true,
      "inputs": [
        {
          "name": "botEntryAddress",
          "type": "address"
        }
      ],
      "name": "botEntryAddressExists",
      "outputs": [
        {
          "name": "",
          "type": "bool"
        }
      ],
      "payable": false,
      "stateMutability": "view",
      "type": "function"
    },
    {
      "constant": true,
      "inputs": [
        {
          "name": "botEntryAddress",
          "type": "address"
        }
      ],
      "name": "botEntryIdForAddress",
      "outputs": [
        {
          "name": "",
          "type": "uint256"
        }
      ],
      "payable": false,
      "stateMutability": "view",
      "type": "function"
    },
    {
      "constant": true,
      "inputs": [
        {
          "name": "botEntryId",
          "type": "uint256"
        }
      ],
      "name": "botEntryAddress",
      "outputs": [
        {
          "name": "",
          "type": "address"
        }
      ],
      "payable": false,
      "stateMutability": "view",
      "type": "function"
    },
    {
      "constant": false,
      "inputs": [
        {
          "name": "newOwner",
          "type": "address"
        }
      ],
      "name": "transferOwnership",
      "outputs": [],
      "payable": false,
      "stateMutability": "nonpayable",
      "type": "function"
    },
    {
      "constant": true,
      "inputs": [
        {
          "name": "botEntryId",
          "type": "uint256"
        }
      ],
      "name": "botEntryDataHash",
      "outputs": [
        {
          "name": "",
          "type": "bytes32"
        }
      ],
      "payable": false,
      "stateMutability": "view",
      "type": "function"
    },
    {
      "constant": true,
      "inputs": [],
      "name": "entryPrice",
      "outputs": [
        {
          "name": "",
          "type": "uint256"
        }
      ],
      "payable": false,
      "stateMutability": "view",
      "type": "function"
    },
    {
      "inputs": [
        {
          "name": "storage_",
          "type": "address"
        }
      ],
      "payable": false,
      "stateMutability": "nonpayable",
      "type": "constructor"
    },
    {
      "anonymous": false,
      "inputs": [
        {
          "indexed": false,
          "name": "botEntryId",
          "type": "uint256"
        },
        {
          "indexed": false,
          "name": "parentEntryId",
          "type": "uint256"
        },
        {
          "indexed": false,
          "name": "developerOwnerAddress",
          "type": "address"
        },
        {
          "indexed": false,
          "name": "botEntryAddress",
          "type": "address"
        },
        {
          "indexed": false,
          "name": "data",
          "type": "bytes32"
        },
        {
          "indexed": false,
          "name": "url",
          "type": "bytes32"
        }
      ],
      "name": "BotEntryCreated",
      "type": "event"
    },
    {
      "anonymous": false,
      "inputs": [
        {
          "indexed": false,
          "name": "entryId",
          "type": "uint256"
        }
      ],
      "name": "Activate",
      "type": "event"
    },
    {
      "anonymous": false,
      "inputs": [
        {
          "indexed": false,
          "name": "entryId",
          "type": "uint256"
        }
      ],
      "name": "Deactivate",
      "type": "event"
    },
    {
      "anonymous": false,
      "inputs": [
        {
          "indexed": false,
          "name": "entryId",
          "type": "uint256"
        }
      ],
      "name": "ApprovalGranted",
      "type": "event"
    },
    {
      "anonymous": false,
      "inputs": [
        {
          "indexed": false,
          "name": "entryId",
          "type": "uint256"
        }
      ],
      "name": "ApprovalRevoked",
      "type": "event"
    },
    {
      "anonymous": false,
      "inputs": [
        {
          "indexed": true,
          "name": "previousOwner",
          "type": "address"
        },
        {
          "indexed": true,
          "name": "newOwner",
          "type": "address"
        }
      ],
      "name": "OwnershipTransferred",
      "type": "event"
    }
  ],
  "bytecode": "0x606060405234156200001057600080fd5b604051602080620034958339810160405280805190602001909190505080808182838184806000806101000a81548173ffffffffffffffffffffffffffffffffffffffff021916908373ffffffffffffffffffffffffffffffffffffffff1602179055505060008173ffffffffffffffffffffffffffffffffffffffff16141515620000b657620000b533620000c364010000000002620026c2176401000000009004565b5b50505050505050620001bf565b6000809054906101000a900473ffffffffffffffffffffffffffffffffffffffff1673ffffffffffffffffffffffffffffffffffffffff1663ca446dd9826040518263ffffffff167c010000000000000000000000000000000000000000000000000000000002815260040180807f6f776e65720000000000000000000000000000000000000000000000000000008152506020018273ffffffffffffffffffffffffffffffffffffffff1673ffffffffffffffffffffffffffffffffffffffff168152602001915050600060405180830381600087803b1515620001a757600080fd5b6102c65a03f11515620001b957600080fd5b50505050565b6132c680620001cf6000396000f300606060405260043610610180576000357c0100000000000000000000000000000000000000000000000000000000900463ffffffff168063047913ce1461018557806306fdde03146101da5780630c54a71a1461026857806318160ddd146102bd57806338333d9e146102e65780633f0c3484146103425780634bf5efe6146103f65780636352211e146104315780636f1d8884146104685780637ca62997146104bd5780637fe7c9b8146104e05780638033d5811461059457806381a9e9d3146105cf578063893d20e81461062b578063916b9bef146106805780639bf4e324146106a35780639cc7f708146106fd578063a2eb892714610734578063a6e77af1146107ac578063b1e130fc146107cf578063b260c42a146107f2578063ce03ffc914610815578063d461c36914610878578063dcbd32fe146108b7578063e05a1220146108f0578063eab3afe914610941578063eb84cae61461098e578063f2fde38b146109f1578063f6f3e95f14610a2a578063f745adfc14610a69575b600080fd5b341561019057600080fd5b610198610a92565b604051808273ffffffffffffffffffffffffffffffffffffffff1673ffffffffffffffffffffffffffffffffffffffff16815260200191505060405180910390f35b34156101e557600080fd5b6101ed610b6c565b6040518080602001828103825283818151815260200191508051906020019080838360005b8381101561022d578082015181840152602081019050610212565b50505050905090810190601f16801561025a5780820380516001836020036101000a031916815260200191505b509250505060405180910390f35b341561027357600080fd5b61027b610ba5565b604051808273ffffffffffffffffffffffffffffffffffffffff1673ffffffffffffffffffffffffffffffffffffffff16815260200191505060405180910390f35b34156102c857600080fd5b6102d0610c7f565b6040518082815260200191505060405180910390f35b34156102f157600080fd5b610340600480803590602001909190803573ffffffffffffffffffffffffffffffffffffffff169060200190919080356000191690602001909190803560001916906020019091905050610d59565b005b341561034d57600080fd5b6103636004808035906020019091905050610d82565b604051808573ffffffffffffffffffffffffffffffffffffffff1673ffffffffffffffffffffffffffffffffffffffff1681526020018473ffffffffffffffffffffffffffffffffffffffff1673ffffffffffffffffffffffffffffffffffffffff1681526020018360001916600019168152602001826000191660001916815260200194505050505060405180910390f35b341561040157600080fd5b6104176004808035906020019091905050610dbb565b604051808215151515815260200191505060405180910390f35b341561043c57600080fd5b6104526004808035906020019091905050610ebc565b6040518082815260200191505060405180910390f35b341561047357600080fd5b61047b610ee3565b604051808273ffffffffffffffffffffffffffffffffffffffff1673ffffffffffffffffffffffffffffffffffffffff16815260200191505060405180910390f35b34156104c857600080fd5b6104de6004808035906020019091905050610fbd565b005b34156104eb57600080fd5b610501600480803590602001909190505061106c565b604051808573ffffffffffffffffffffffffffffffffffffffff1673ffffffffffffffffffffffffffffffffffffffff1681526020018473ffffffffffffffffffffffffffffffffffffffff1673ffffffffffffffffffffffffffffffffffffffff1681526020018360001916600019168152602001826000191660001916815260200194505050505060405180910390f35b341561059f57600080fd5b6105b5600480803590602001909190505061108a565b604051808215151515815260200191505060405180910390f35b34156105da57600080fd5b610629600480803590602001909190803573ffffffffffffffffffffffffffffffffffffffff16906020019091908035600019169060200190919080356000191690602001909190505061118b565b005b341561063657600080fd5b61063e61119d565b604051808273ffffffffffffffffffffffffffffffffffffffff1673ffffffffffffffffffffffffffffffffffffffff16815260200191505060405180910390f35b341561068b57600080fd5b6106a16004808035906020019091905050611277565b005b34156106ae57600080fd5b6106e3600480803573ffffffffffffffffffffffffffffffffffffffff169060200190919080359060200190919050506112e4565b604051808215151515815260200191505060405180910390f35b341561070857600080fd5b61071e6004808035906020019091905050611437565b6040518082815260200191505060405180910390f35b341561073f57600080fd5b6107556004808035906020019091905050611538565b6040518080602001828103825283818151815260200191508051906020019060200280838360005b8381101561079857808201518184015260208101905061077d565b505050509050019250505060405180910390f35b34156107b757600080fd5b6107cd60048080359060200190919050506115c3565b005b34156107da57600080fd5b6107f060048080359060200190919050506116d2565b005b34156107fd57600080fd5b6108136004808035906020019091905050611780565b005b341561082057600080fd5b61083660048080359060200190919050506117ee565b604051808273ffffffffffffffffffffffffffffffffffffffff1673ffffffffffffffffffffffffffffffffffffffff16815260200191505060405180910390f35b341561088357600080fd5b610899600480803590602001909190505061189d565b60405180826000191660001916815260200191505060405180910390f35b34156108c257600080fd5b6108ee600480803573ffffffffffffffffffffffffffffffffffffffff1690602001909190505061199e565b005b34156108fb57600080fd5b610927600480803573ffffffffffffffffffffffffffffffffffffffff16906020019091905050611aff565b604051808215151515815260200191505060405180910390f35b341561094c57600080fd5b610978600480803573ffffffffffffffffffffffffffffffffffffffff16906020019091905050611b13565b6040518082815260200191505060405180910390f35b341561099957600080fd5b6109af6004808035906020019091905050611c4f565b604051808273ffffffffffffffffffffffffffffffffffffffff1673ffffffffffffffffffffffffffffffffffffffff16815260200191505060405180910390f35b34156109fc57600080fd5b610a28600480803573ffffffffffffffffffffffffffffffffffffffff16906020019091905050611d50565b005b3415610a3557600080fd5b610a4b6004808035906020019091905050611e3a565b60405180826000191660001916815260200191505060405180910390f35b3415610a7457600080fd5b610a7c611f3b565b6040518082815260200191505060405180910390f35b60008060009054906101000a900473ffffffffffffffffffffffffffffffffffffffff1673ffffffffffffffffffffffffffffffffffffffff166321f8a7216000604051602001526040518163ffffffff167c010000000000000000000000000000000000000000000000000000000002815260040180807f626f74436f696e416464726573730000000000000000000000000000000000008152506020019050602060405180830381600087803b1515610b4c57600080fd5b6102c65a03f11515610b5d57600080fd5b50505060405180519050905090565b6040805190810160405280601281526020017f426f7450726f647563745265676973747279000000000000000000000000000081525081565b60008060009054906101000a900473ffffffffffffffffffffffffffffffffffffffff1673ffffffffffffffffffffffffffffffffffffffff166321f8a7216000604051602001526040518163ffffffff167c010000000000000000000000000000000000000000000000000000000002815260040180807f6f776e65725265676973747279416464726573730000000000000000000000008152506020019050602060405180830381600087803b1515610c5f57600080fd5b6102c65a03f11515610c7057600080fd5b50505060405180519050905090565b60008060009054906101000a900473ffffffffffffffffffffffffffffffffffffffff1673ffffffffffffffffffffffffffffffffffffffff1663bd02d0f56000604051602001526040518163ffffffff167c010000000000000000000000000000000000000000000000000000000002815260040180807f746f74616c546f6b656e730000000000000000000000000000000000000000008152506020019050602060405180830381600087803b1515610d3957600080fd5b6102c65a03f11515610d4a57600080fd5b50505060405180519050905090565b6000600102816000191614151515610d7057600080fd5b610d7c84848484612015565b50505050565b600080600080610d91856117ee565b9350610d9c85611c4f565b9250610da785611e3a565b9150610db28561189d565b90509193509193565b60008060009054906101000a900473ffffffffffffffffffffffffffffffffffffffff1673ffffffffffffffffffffffffffffffffffffffff16637ae1cfca8360405180807f617070726f76616c537461747573000000000000000000000000000000000000815250600e0182815260200191505060405180910390206000604051602001526040518263ffffffff167c0100000000000000000000000000000000000000000000000000000000028152600401808260001916600019168152602001915050602060405180830381600087803b1515610e9a57600080fd5b6102c65a03f11515610eab57600080fd5b505050604051805190509050919050565b600080610ec883612273565b905060008114151515610eda57600080fd5b80915050919050565b60008060009054906101000a900473ffffffffffffffffffffffffffffffffffffffff1673ffffffffffffffffffffffffffffffffffffffff166321f8a7216000604051602001526040518163ffffffff167c010000000000000000000000000000000000000000000000000000000002815260040180807f74616c6c6157616c6c65740000000000000000000000000000000000000000008152506020019050602060405180830381600087803b1515610f9d57600080fd5b6102c65a03f11515610fae57600080fd5b50505060405180519050905090565b610fc561119d565b73ffffffffffffffffffffffffffffffffffffffff163373ffffffffffffffffffffffffffffffffffffffff16141515610ffe57600080fd5b61100781612374565b151561101257600080fd5b61101b81610dbb565b15151561102757600080fd5b61103281600161239f565b7ffd9d9585c7e646ed46689240252bb11f3229ac41fd7e8ef6a81c9e5e14760802816040518082815260200191505060405180910390a150565b60008060008061107b85610d82565b93509350935093509193509193565b60008060009054906101000a900473ffffffffffffffffffffffffffffffffffffffff1673ffffffffffffffffffffffffffffffffffffffff16637ae1cfca8360405180807f6163746976655374617475730000000000000000000000000000000000000000815250600c0182815260200191505060405180910390206000604051602001526040518263ffffffff167c0100000000000000000000000000000000000000000000000000000000028152600401808260001916600019168152602001915050602060405180830381600087803b151561116957600080fd5b6102c65a03f1151561117a57600080fd5b505050604051805190509050919050565b61119784848484610d59565b50505050565b60008060009054906101000a900473ffffffffffffffffffffffffffffffffffffffff1673ffffffffffffffffffffffffffffffffffffffff166321f8a7216000604051602001526040518163ffffffff167c010000000000000000000000000000000000000000000000000000000002815260040180807f6f776e65720000000000000000000000000000000000000000000000000000008152506020019050602060405180830381600087803b151561125757600080fd5b6102c65a03f1151561126857600080fd5b50505060405180519050905090565b61128081612497565b151561128b57600080fd5b6112948161108a565b151561129f57600080fd5b6112aa8160006124c0565b7f642028127038cd17804be50978266c980dbd2234656c49d7f9c43f15985cf0ad816040518082815260200191505060405180910390a150565b6000806112f083610ebc565b90506112fa610ba5565b73ffffffffffffffffffffffffffffffffffffffff16639bf4e32485836000604051602001526040518363ffffffff167c0100000000000000000000000000000000000000000000000000000000028152600401808373ffffffffffffffffffffffffffffffffffffffff1673ffffffffffffffffffffffffffffffffffffffff16815260200182815260200192505050602060405180830381600087803b15156113a457600080fd5b6102c65a03f115156113b557600080fd5b5050506040518051905080156113fe57508373ffffffffffffffffffffffffffffffffffffffff166113e6846117ee565b73ffffffffffffffffffffffffffffffffffffffff16145b801561141657506001151561141284610dbb565b1515145b801561142e57506001151561142a8461108a565b1515145b91505092915050565b60008060009054906101000a900473ffffffffffffffffffffffffffffffffffffffff1673ffffffffffffffffffffffffffffffffffffffff1663bd02d0f58360405180807f6f776e657242616c616e63657300000000000000000000000000000000000000815250600d0182815260200191505060405180910390206000604051602001526040518263ffffffff167c0100000000000000000000000000000000000000000000000000000000028152600401808260001916600019168152602001915050602060405180830381600087803b151561151657600080fd5b6102c65a03f1151561152757600080fd5b505050604051805190509050919050565b611540613286565b600061154a613286565b600061155585611437565b9250826040518059106115655750595b90808252806020026020018201604052509150600090505b828110156115b85761158f85826125b8565b828281518110151561159d57fe5b9060200190602002018181525050808060010191505061157d565b819350505050919050565b6115cb61119d565b73ffffffffffffffffffffffffffffffffffffffff163373ffffffffffffffffffffffffffffffffffffffff1614151561160457600080fd5b6000809054906101000a900473ffffffffffffffffffffffffffffffffffffffff1673ffffffffffffffffffffffffffffffffffffffff1663e2a4853a826040518263ffffffff167c010000000000000000000000000000000000000000000000000000000002815260040180807f656e747279507269636500000000000000000000000000000000000000000000815250602001828152602001915050600060405180830381600087803b15156116bb57600080fd5b6102c65a03f115156116cc57600080fd5b50505050565b6116da61119d565b73ffffffffffffffffffffffffffffffffffffffff163373ffffffffffffffffffffffffffffffffffffffff1614151561171357600080fd5b61171c81612374565b151561172757600080fd5b61173081610dbb565b151561173b57600080fd5b61174681600061239f565b7fb6718bd6b02cdd14f759530c19e5a31b0e130155a6b0df289a78a46aabbeebc4816040518082815260200191505060405180910390a150565b61178981612497565b151561179457600080fd5b61179d8161108a565b1515156117a957600080fd5b6117b48160016124c0565b7f973e7e4090a8638950965c1497c763e51c4264196dc51b8b7a0bac812917dbe7816040518082815260200191505060405180910390a150565b6000806117fa83610ebc565b9050611804610ba5565b73ffffffffffffffffffffffffffffffffffffffff1663ce03ffc9826000604051602001526040518263ffffffff167c010000000000000000000000000000000000000000000000000000000002815260040180828152602001915050602060405180830381600087803b151561187a57600080fd5b6102c65a03f1151561188b57600080fd5b50505060405180519050915050919050565b60008060009054906101000a900473ffffffffffffffffffffffffffffffffffffffff1673ffffffffffffffffffffffffffffffffffffffff1663a6ed563e8360405180807f626f74456e74727955726c000000000000000000000000000000000000000000815250600b0182815260200191505060405180910390206000604051602001526040518263ffffffff167c0100000000000000000000000000000000000000000000000000000000028152600401808260001916600019168152602001915050602060405180830381600087803b151561197c57600080fd5b6102c65a03f1151561198d57600080fd5b505050604051805190509050919050565b6119a661119d565b73ffffffffffffffffffffffffffffffffffffffff163373ffffffffffffffffffffffffffffffffffffffff161415156119df57600080fd5b60008173ffffffffffffffffffffffffffffffffffffffff1614151515611a0557600080fd5b6000809054906101000a900473ffffffffffffffffffffffffffffffffffffffff1673ffffffffffffffffffffffffffffffffffffffff1663ca446dd9826040518263ffffffff167c010000000000000000000000000000000000000000000000000000000002815260040180807f74616c6c6157616c6c65740000000000000000000000000000000000000000008152506020018273ffffffffffffffffffffffffffffffffffffffff1673ffffffffffffffffffffffffffffffffffffffff168152602001915050600060405180830381600087803b1515611ae857600080fd5b6102c65a03f11515611af957600080fd5b50505050565b600080611b0b83611b13565b119050919050565b60008060009054906101000a900473ffffffffffffffffffffffffffffffffffffffff1673ffffffffffffffffffffffffffffffffffffffff1663bd02d0f58360405180807f626f74456e7472794964734279416464726573730000000000000000000000008152506014018273ffffffffffffffffffffffffffffffffffffffff1673ffffffffffffffffffffffffffffffffffffffff166c0100000000000000000000000002815260140191505060405180910390206000604051602001526040518263ffffffff167c0100000000000000000000000000000000000000000000000000000000028152600401808260001916600019168152602001915050602060405180830381600087803b1515611c2d57600080fd5b6102c65a03f11515611c3e57600080fd5b505050604051805190509050919050565b60008060009054906101000a900473ffffffffffffffffffffffffffffffffffffffff1673ffffffffffffffffffffffffffffffffffffffff166321f8a7218360405180807f626f74456e74727941646472657373657300000000000000000000000000000081525060110182815260200191505060405180910390206000604051602001526040518263ffffffff167c0100000000000000000000000000000000000000000000000000000000028152600401808260001916600019168152602001915050602060405180830381600087803b1515611d2e57600080fd5b6102c65a03f11515611d3f57600080fd5b505050604051805190509050919050565b611d5861119d565b73ffffffffffffffffffffffffffffffffffffffff163373ffffffffffffffffffffffffffffffffffffffff16141515611d9157600080fd5b600073ffffffffffffffffffffffffffffffffffffffff168173ffffffffffffffffffffffffffffffffffffffff1614151515611dcd57600080fd5b8073ffffffffffffffffffffffffffffffffffffffff16611dec61119d565b73ffffffffffffffffffffffffffffffffffffffff167f8be0079c531659141344cd1fd0a4f28419497f9722a3daafe3b4186f6b6457e060405160405180910390a3611e37816126c2565b50565b60008060009054906101000a900473ffffffffffffffffffffffffffffffffffffffff1673ffffffffffffffffffffffffffffffffffffffff1663a6ed563e8360405180807f626f74456e74727944617461486173686573000000000000000000000000000081525060120182815260200191505060405180910390206000604051602001526040518263ffffffff167c0100000000000000000000000000000000000000000000000000000000028152600401808260001916600019168152602001915050602060405180830381600087803b1515611f1957600080fd5b6102c65a03f11515611f2a57600080fd5b505050604051805190509050919050565b60008060009054906101000a900473ffffffffffffffffffffffffffffffffffffffff1673ffffffffffffffffffffffffffffffffffffffff1663bd02d0f56000604051602001526040518163ffffffff167c010000000000000000000000000000000000000000000000000000000002815260040180807f656e7472795072696365000000000000000000000000000000000000000000008152506020019050602060405180830381600087803b1515611ff557600080fd5b6102c65a03f1151561200657600080fd5b50505060405180519050905090565b600061201f610ba5565b73ffffffffffffffffffffffffffffffffffffffff16639bf4e32433876000604051602001526040518363ffffffff167c0100000000000000000000000000000000000000000000000000000000028152600401808373ffffffffffffffffffffffffffffffffffffffff1673ffffffffffffffffffffffffffffffffffffffff16815260200182815260200192505050602060405180830381600087803b15156120c957600080fd5b6102c65a03f115156120da57600080fd5b5050506040518051905015156120ef57600080fd5b60008473ffffffffffffffffffffffffffffffffffffffff161415151561211557600080fd5b600060010283600019161415151561212c57600080fd5b61213584611aff565b15151561214157600080fd5b61215c600161214e610c7f565b6127bc90919063ffffffff16565b90506121666127da565b61217085826128ec565b61217b81858561290a565b6121858482612b23565b61218f8183612c52565b61219a81600161239f565b6121a58160016124c0565b7f06f8a425daea0f7f5288e36450441a759bac7681ac1807e8352a92da78d9ffc8818633878787604051808781526020018681526020018573ffffffffffffffffffffffffffffffffffffffff1673ffffffffffffffffffffffffffffffffffffffff1681526020018473ffffffffffffffffffffffffffffffffffffffff1673ffffffffffffffffffffffffffffffffffffffff16815260200183600019166000191681526020018260001916600019168152602001965050505050505060405180910390a15050505050565b60008060009054906101000a900473ffffffffffffffffffffffffffffffffffffffff1673ffffffffffffffffffffffffffffffffffffffff1663bd02d0f58360405180807f746f6b656e4f776e657273000000000000000000000000000000000000000000815250600b0182815260200191505060405180910390206000604051602001526040518263ffffffff167c0100000000000000000000000000000000000000000000000000000000028152600401808260001916600019168152602001915050602060405180830381600087803b151561235257600080fd5b6102c65a03f1151561236357600080fd5b505050604051805190509050919050565b600080612380836117ee565b73ffffffffffffffffffffffffffffffffffffffff1614159050919050565b6000809054906101000a900473ffffffffffffffffffffffffffffffffffffffff1673ffffffffffffffffffffffffffffffffffffffff1663abfdcced8360405180807f617070726f76616c537461747573000000000000000000000000000000000000815250600e018281526020019150506040518091039020836040518363ffffffff167c01000000000000000000000000000000000000000000000000000000000281526004018083600019166000191681526020018215151515815260200192505050600060405180830381600087803b151561247f57600080fd5b6102c65a03f1151561249057600080fd5b5050505050565b60003373ffffffffffffffffffffffffffffffffffffffff166124b9836117ee565b5050919050565b6000809054906101000a900473ffffffffffffffffffffffffffffffffffffffff1673ffffffffffffffffffffffffffffffffffffffff1663abfdcced8360405180807f6163746976655374617475730000000000000000000000000000000000000000815250600c018281526020019150506040518091039020836040518363ffffffff167c01000000000000000000000000000000000000000000000000000000000281526004018083600019166000191681526020018215151515815260200192505050600060405180830381600087803b15156125a057600080fd5b6102c65a03f115156125b157600080fd5b5050505050565b60008060009054906101000a900473ffffffffffffffffffffffffffffffffffffffff1673ffffffffffffffffffffffffffffffffffffffff1663bd02d0f5848460405180807f6f776e6564546f6b656e73000000000000000000000000000000000000000000815250600b018381526020018281526020019250505060405180910390206000604051602001526040518263ffffffff167c0100000000000000000000000000000000000000000000000000000000028152600401808260001916600019168152602001915050602060405180830381600087803b151561269f57600080fd5b6102c65a03f115156126b057600080fd5b50505060405180519050905092915050565b6000809054906101000a900473ffffffffffffffffffffffffffffffffffffffff1673ffffffffffffffffffffffffffffffffffffffff1663ca446dd9826040518263ffffffff167c010000000000000000000000000000000000000000000000000000000002815260040180807f6f776e65720000000000000000000000000000000000000000000000000000008152506020018273ffffffffffffffffffffffffffffffffffffffff1673ffffffffffffffffffffffffffffffffffffffff168152602001915050600060405180830381600087803b15156127a557600080fd5b6102c65a03f115156127b657600080fd5b50505050565b60008082840190508381101515156127d057fe5b8091505092915050565b6127e2610a92565b73ffffffffffffffffffffffffffffffffffffffff166323b872dd33612806610ee3565b61280e611f3b565b6000604051602001526040518463ffffffff167c0100000000000000000000000000000000000000000000000000000000028152600401808473ffffffffffffffffffffffffffffffffffffffff1673ffffffffffffffffffffffffffffffffffffffff1681526020018373ffffffffffffffffffffffffffffffffffffffff1673ffffffffffffffffffffffffffffffffffffffff1681526020018281526020019350505050602060405180830381600087803b15156128ce57600080fd5b6102c65a03f115156128df57600080fd5b5050506040518051905050565b600082141515156128fc57600080fd5b6129068282612d4e565b5050565b6000809054906101000a900473ffffffffffffffffffffffffffffffffffffffff1673ffffffffffffffffffffffffffffffffffffffff1663ca446dd98460405180807f626f74456e7472794164647265737365730000000000000000000000000000008152506011018281526020019150506040518091039020846040518363ffffffff167c01000000000000000000000000000000000000000000000000000000000281526004018083600019166000191681526020018273ffffffffffffffffffffffffffffffffffffffff1673ffffffffffffffffffffffffffffffffffffffff16815260200192505050600060405180830381600087803b1515612a1257600080fd5b6102c65a03f11515612a2357600080fd5b5050506000809054906101000a900473ffffffffffffffffffffffffffffffffffffffff1673ffffffffffffffffffffffffffffffffffffffff16634e91db088460405180807f626f74456e7472794461746148617368657300000000000000000000000000008152506012018281526020019150506040518091039020836040518363ffffffff167c0100000000000000000000000000000000000000000000000000000000028152600401808360001916600019168152602001826000191660001916815260200192505050600060405180830381600087803b1515612b0a57600080fd5b6102c65a03f11515612b1b57600080fd5b505050505050565b6000809054906101000a900473ffffffffffffffffffffffffffffffffffffffff1673ffffffffffffffffffffffffffffffffffffffff1663e2a4853a8360405180807f626f74456e7472794964734279416464726573730000000000000000000000008152506014018273ffffffffffffffffffffffffffffffffffffffff1673ffffffffffffffffffffffffffffffffffffffff166c010000000000000000000000000281526014019150506040518091039020836040518363ffffffff167c010000000000000000000000000000000000000000000000000000000002815260040180836000191660001916815260200182815260200192505050600060405180830381600087803b1515612c3a57600080fd5b6102c65a03f11515612c4b57600080fd5b5050505050565b6000809054906101000a900473ffffffffffffffffffffffffffffffffffffffff1673ffffffffffffffffffffffffffffffffffffffff16634e91db088360405180807f626f74456e747279496400000000000000000000000000000000000000000000815250600a018281526020019150506040518091039020836040518363ffffffff167c0100000000000000000000000000000000000000000000000000000000028152600401808360001916600019168152602001826000191660001916815260200192505050600060405180830381600087803b1515612d3657600080fd5b6102c65a03f11515612d4757600080fd5b5050505050565b600080612d5a83612273565b141515612d6657600080fd5b612d708284612d9c565b612d7983611437565b9050612d858383612e90565b612d8f8282612f9d565b612d97613091565b505050565b6000809054906101000a900473ffffffffffffffffffffffffffffffffffffffff1673ffffffffffffffffffffffffffffffffffffffff1663e2a4853a8360405180807f746f6b656e4f776e657273000000000000000000000000000000000000000000815250600b018281526020019150506040518091039020836040518363ffffffff167c010000000000000000000000000000000000000000000000000000000002815260040180836000191660001916815260200182815260200192505050600060405180830381600087803b1515612e7857600080fd5b6102c65a03f11515612e8957600080fd5b5050505050565b6000809054906101000a900473ffffffffffffffffffffffffffffffffffffffff1673ffffffffffffffffffffffffffffffffffffffff1663e2a4853a83612ed785611437565b60405180807f6f776e6564546f6b656e73000000000000000000000000000000000000000000815250600b01838152602001828152602001925050506040518091039020836040518363ffffffff167c010000000000000000000000000000000000000000000000000000000002815260040180836000191660001916815260200182815260200192505050600060405180830381600087803b1515612f7c57600080fd5b6102c65a03f11515612f8d57600080fd5b505050612f9982613178565b5050565b6000809054906101000a900473ffffffffffffffffffffffffffffffffffffffff1673ffffffffffffffffffffffffffffffffffffffff1663e2a4853a8360405180807f6f776e6564546f6b656e73496e646578000000000000000000000000000000008152506010018281526020019150506040518091039020836040518363ffffffff167c010000000000000000000000000000000000000000000000000000000002815260040180836000191660001916815260200182815260200192505050600060405180830381600087803b151561307957600080fd5b6102c65a03f1151561308a57600080fd5b5050505050565b6000809054906101000a900473ffffffffffffffffffffffffffffffffffffffff1673ffffffffffffffffffffffffffffffffffffffff1663e2a4853a6130e960016130db610c7f565b6127bc90919063ffffffff16565b6040518263ffffffff167c010000000000000000000000000000000000000000000000000000000002815260040180807f746f74616c546f6b656e73000000000000000000000000000000000000000000815250602001828152602001915050600060405180830381600087803b151561316257600080fd5b6102c65a03f1151561317357600080fd5b505050565b6000809054906101000a900473ffffffffffffffffffffffffffffffffffffffff1673ffffffffffffffffffffffffffffffffffffffff1663e2a4853a8260405180807f6f776e657242616c616e63657300000000000000000000000000000000000000815250600d01828152602001915050604051809103902061320f600161320186611437565b6127bc90919063ffffffff16565b6040518363ffffffff167c010000000000000000000000000000000000000000000000000000000002815260040180836000191660001916815260200182815260200192505050600060405180830381600087803b151561326f57600080fd5b6102c65a03f1151561328057600080fd5b50505050565b6020604051908101604052806000815250905600a165627a7a7230582062f726ae6a549f6000e925ada589b9a4a41fdd7bb5e42190619f26a660bf1d590029",
  "source": "pragma solidity ^0.4.18;\n\nimport \"../Registry/BotEntryStorableRegistry.sol\";\nimport \"../Registry/OwnerRegistry.sol\";\n\n/**\n * @title BotProductRegistryDelegate\n * @dev Delegate contract for functionality that handles ownership of bot products.\n *  Bot products belong to a developer. Bot instances can be minted for a bot product.\n *  Ownership of a bot product is determined by the developer that the bot product belongs to.\n */\ncontract BotProductRegistryDelegate is BotEntryStorableRegistry, OwnerRegistry {\n\n  string public constant name = \"BotProductRegistry\";\n\n  /**\n  * @dev Constructor for BotProductRegistryDelegate\n  * @param storage_ address of a BaseStorage contract\n  */\n  function BotProductRegistryDelegate(BaseStorage storage_)\n    BotEntryStorableRegistry(storage_)\n    public\n  {}\n\n  /**\n  * @dev Returns bot product data for the given bot product ID\n  * @param botProductId A bot product ID\n  * @return _owner The address that owns the bot product\n  * @return _botEntryAddress The address of the bot product\n  * @return _data A hash of data associated with the bot product\n  * @return _url A URL for the bot product\n  */\n  function getBotProduct(uint256 botProductId) public view returns\n  (\n    address _owner,\n    address _botEntryAddress,\n    bytes32 _data, \n    bytes32 _url\n  ) {\n    return getBotEntry(botProductId);\n  }\n\n  /**\n  * @dev Creates a new bot product.\n  * @param developerId ID of the developer that will own this bot product\n  * @param botProductAddress Address of the bot product\n  * @param dataHash Hash of data associated with the bot product\n  * @param url A URL associated with this bot product\n  */\n  function createBotProduct(\n    uint256 developerId, \n    address botProductAddress, \n    bytes32 dataHash, \n    bytes32 url\n  )\n    public \n  {\n    createBotEntry(developerId, botProductAddress, dataHash, url);\n  }\n\n  /**\n  * @dev Override for BotEntryStorableRegistry.createBotEntry()\n  */\n  function createBotEntry(\n    uint256 developerId, \n    address botProductAddress, \n    bytes32 dataHash,\n    bytes32 url\n  )\n    public\n  {\n    require(url != 0x0);\n    super.createBotEntry(developerId, botProductAddress, dataHash, url);\n  }\n\n  /**\n  * @dev Returns true if the given address is allowed to mint bot instances under the\n  *  given bot product ID. Implementation for OwnerRegistry abstract.\n  * @param _minter Address of minter\n  * @param _botProductId A bot product ID\n  * @return True if minting is allowed\n  */\n  function mintingAllowed(address _minter, uint256 _botProductId) public view returns (bool) {\n    uint256 developerId = ownerOf(_botProductId);\n    return ownerRegistry().mintingAllowed(_minter, developerId) && ownerOfEntry(_botProductId) == _minter && approvalStatus(_botProductId) == true && active(_botProductId) == true;\n  }\n\n}\n",
  "sourcePath": "/Volumes/workspace/_projects/talla/botchain/contracts/Delegates/BotProductRegistryDelegate.sol",
  "compiler": {
    "name": "solc",
    "version": "0.4.18+commit.9cf6e910.Emscripten.clang"
  },
  "schemaVersion": "1.0.1",
  "updatedAt": "2018-03-21T17:35:41.913Z"
}