{
  "contractName": "BotServiceRegistryDelegate",
  "abi": [
    {
      "constant": true,
      "inputs": [],
      "name": "botCoin",
      "outputs": [
        {
          "name": "",
          "type": "address"
        }
      ],
      "payable": false,
      "stateMutability": "view",
      "type": "function"
    },
    {
      "constant": true,
      "inputs": [],
      "name": "name",
      "outputs": [
        {
          "name": "",
          "type": "string"
        }
      ],
      "payable": false,
      "stateMutability": "view",
      "type": "function"
    },
    {
      "constant": true,
      "inputs": [],
      "name": "ownerRegistry",
      "outputs": [
        {
          "name": "",
          "type": "address"
        }
      ],
      "payable": false,
      "stateMutability": "view",
      "type": "function"
    },
    {
      "constant": true,
      "inputs": [],
      "name": "totalSupply",
      "outputs": [
        {
          "name": "",
          "type": "uint256"
        }
      ],
      "payable": false,
      "stateMutability": "view",
      "type": "function"
    },
    {
      "constant": false,
      "inputs": [
        {
          "name": "developerId",
          "type": "uint256"
        },
        {
          "name": "botServiceAddress",
          "type": "address"
        },
        {
          "name": "dataHash",
          "type": "bytes32"
        },
        {
          "name": "url",
          "type": "bytes32"
        }
      ],
      "name": "createBotEntry",
      "outputs": [],
      "payable": false,
      "stateMutability": "nonpayable",
      "type": "function"
    },
    {
      "constant": true,
      "inputs": [
        {
          "name": "botEntryId",
          "type": "uint256"
        }
      ],
      "name": "getBotEntry",
      "outputs": [
        {
          "name": "_owner",
          "type": "address"
        },
        {
          "name": "_botEntryAddress",
          "type": "address"
        },
        {
          "name": "_data",
          "type": "bytes32"
        },
        {
          "name": "_url",
          "type": "bytes32"
        }
      ],
      "payable": false,
      "stateMutability": "view",
      "type": "function"
    },
    {
      "constant": true,
      "inputs": [
        {
          "name": "_entryId",
          "type": "uint256"
        }
      ],
      "name": "approvalStatus",
      "outputs": [
        {
          "name": "",
          "type": "bool"
        }
      ],
      "payable": false,
      "stateMutability": "view",
      "type": "function"
    },
    {
      "constant": true,
      "inputs": [
        {
          "name": "botServiceId",
          "type": "uint256"
        }
      ],
      "name": "getBotService",
      "outputs": [
        {
          "name": "_owner",
          "type": "address"
        },
        {
          "name": "_botServiceAddress",
          "type": "address"
        },
        {
          "name": "_data",
          "type": "bytes32"
        },
        {
          "name": "_url",
          "type": "bytes32"
        }
      ],
      "payable": false,
      "stateMutability": "view",
      "type": "function"
    },
    {
      "constant": true,
      "inputs": [
        {
          "name": "_tokenId",
          "type": "uint256"
        }
      ],
      "name": "ownerOf",
      "outputs": [
        {
          "name": "",
          "type": "uint256"
        }
      ],
      "payable": false,
      "stateMutability": "view",
      "type": "function"
    },
    {
      "constant": true,
      "inputs": [],
      "name": "tallaWallet",
      "outputs": [
        {
          "name": "",
          "type": "address"
        }
      ],
      "payable": false,
      "stateMutability": "view",
      "type": "function"
    },
    {
      "constant": false,
      "inputs": [
        {
          "name": "_entryId",
          "type": "uint256"
        }
      ],
      "name": "grantApproval",
      "outputs": [],
      "payable": false,
      "stateMutability": "nonpayable",
      "type": "function"
    },
    {
      "constant": true,
      "inputs": [
        {
          "name": "_entryId",
          "type": "uint256"
        }
      ],
      "name": "active",
      "outputs": [
        {
          "name": "",
          "type": "bool"
        }
      ],
      "payable": false,
      "stateMutability": "view",
      "type": "function"
    },
    {
      "constant": true,
      "inputs": [],
      "name": "getOwner",
      "outputs": [
        {
          "name": "",
          "type": "address"
        }
      ],
      "payable": false,
      "stateMutability": "view",
      "type": "function"
    },
    {
      "constant": false,
      "inputs": [
        {
          "name": "_entryId",
          "type": "uint256"
        }
      ],
      "name": "deactivate",
      "outputs": [],
      "payable": false,
      "stateMutability": "nonpayable",
      "type": "function"
    },
    {
      "constant": false,
      "inputs": [
        {
          "name": "developerId",
          "type": "uint256"
        },
        {
          "name": "botServiceAddress",
          "type": "address"
        },
        {
          "name": "dataHash",
          "type": "bytes32"
        },
        {
          "name": "url",
          "type": "bytes32"
        }
      ],
      "name": "createBotService",
      "outputs": [],
      "payable": false,
      "stateMutability": "nonpayable",
      "type": "function"
    },
    {
      "constant": true,
      "inputs": [
        {
          "name": "_ownerTokenId",
          "type": "uint256"
        }
      ],
      "name": "balanceOf",
      "outputs": [
        {
          "name": "",
          "type": "uint256"
        }
      ],
      "payable": false,
      "stateMutability": "view",
      "type": "function"
    },
    {
      "constant": true,
      "inputs": [
        {
          "name": "_ownerTokenId",
          "type": "uint256"
        }
      ],
      "name": "tokensOf",
      "outputs": [
        {
          "name": "",
          "type": "uint256[]"
        }
      ],
      "payable": false,
      "stateMutability": "view",
      "type": "function"
    },
    {
      "constant": false,
      "inputs": [
        {
          "name": "entryPrice",
          "type": "uint256"
        }
      ],
      "name": "setEntryPrice",
      "outputs": [],
      "payable": false,
      "stateMutability": "nonpayable",
      "type": "function"
    },
    {
      "constant": false,
      "inputs": [
        {
          "name": "_entryId",
          "type": "uint256"
        }
      ],
      "name": "revokeApproval",
      "outputs": [],
      "payable": false,
      "stateMutability": "nonpayable",
      "type": "function"
    },
    {
      "constant": false,
      "inputs": [
        {
          "name": "_entryId",
          "type": "uint256"
        }
      ],
      "name": "activate",
      "outputs": [],
      "payable": false,
      "stateMutability": "nonpayable",
      "type": "function"
    },
    {
      "constant": true,
      "inputs": [
        {
          "name": "_entryId",
          "type": "uint256"
        }
      ],
      "name": "ownerOfEntry",
      "outputs": [
        {
          "name": "",
          "type": "address"
        }
      ],
      "payable": false,
      "stateMutability": "view",
      "type": "function"
    },
    {
      "constant": true,
      "inputs": [
        {
          "name": "botEntryId",
          "type": "uint256"
        }
      ],
      "name": "botEntryUrl",
      "outputs": [
        {
          "name": "",
          "type": "bytes32"
        }
      ],
      "payable": false,
      "stateMutability": "view",
      "type": "function"
    },
    {
      "constant": false,
      "inputs": [
        {
          "name": "tallaWallet",
          "type": "address"
        }
      ],
      "name": "setTallaWallet",
      "outputs": [],
      "payable": false,
      "stateMutability": "nonpayable",
      "type": "function"
    },
    {
      "constant": true,
      "inputs": [
        {
          "name": "botEntryAddress",
          "type": "address"
        }
      ],
      "name": "botEntryAddressExists",
      "outputs": [
        {
          "name": "",
          "type": "bool"
        }
      ],
      "payable": false,
      "stateMutability": "view",
      "type": "function"
    },
    {
      "constant": true,
      "inputs": [
        {
          "name": "botEntryAddress",
          "type": "address"
        }
      ],
      "name": "botEntryIdForAddress",
      "outputs": [
        {
          "name": "",
          "type": "uint256"
        }
      ],
      "payable": false,
      "stateMutability": "view",
      "type": "function"
    },
    {
      "constant": true,
      "inputs": [
        {
          "name": "botEntryId",
          "type": "uint256"
        }
      ],
      "name": "botEntryAddress",
      "outputs": [
        {
          "name": "",
          "type": "address"
        }
      ],
      "payable": false,
      "stateMutability": "view",
      "type": "function"
    },
    {
      "constant": false,
      "inputs": [
        {
          "name": "newOwner",
          "type": "address"
        }
      ],
      "name": "transferOwnership",
      "outputs": [],
      "payable": false,
      "stateMutability": "nonpayable",
      "type": "function"
    },
    {
      "constant": true,
      "inputs": [
        {
          "name": "botEntryId",
          "type": "uint256"
        }
      ],
      "name": "botEntryDataHash",
      "outputs": [
        {
          "name": "",
          "type": "bytes32"
        }
      ],
      "payable": false,
      "stateMutability": "view",
      "type": "function"
    },
    {
      "constant": true,
      "inputs": [],
      "name": "entryPrice",
      "outputs": [
        {
          "name": "",
          "type": "uint256"
        }
      ],
      "payable": false,
      "stateMutability": "view",
      "type": "function"
    },
    {
      "inputs": [
        {
          "name": "storage_",
          "type": "address"
        }
      ],
      "payable": false,
      "stateMutability": "nonpayable",
      "type": "constructor"
    },
    {
      "anonymous": false,
      "inputs": [
        {
          "indexed": false,
          "name": "botEntryId",
          "type": "uint256"
        },
        {
          "indexed": false,
          "name": "parentEntryId",
          "type": "uint256"
        },
        {
          "indexed": false,
          "name": "developerOwnerAddress",
          "type": "address"
        },
        {
          "indexed": false,
          "name": "botEntryAddress",
          "type": "address"
        },
        {
          "indexed": false,
          "name": "data",
          "type": "bytes32"
        },
        {
          "indexed": false,
          "name": "url",
          "type": "bytes32"
        }
      ],
      "name": "BotEntryCreated",
      "type": "event"
    },
    {
      "anonymous": false,
      "inputs": [
        {
          "indexed": false,
          "name": "entryId",
          "type": "uint256"
        }
      ],
      "name": "Activate",
      "type": "event"
    },
    {
      "anonymous": false,
      "inputs": [
        {
          "indexed": false,
          "name": "entryId",
          "type": "uint256"
        }
      ],
      "name": "Deactivate",
      "type": "event"
    },
    {
      "anonymous": false,
      "inputs": [
        {
          "indexed": false,
          "name": "entryId",
          "type": "uint256"
        }
      ],
      "name": "ApprovalGranted",
      "type": "event"
    },
    {
      "anonymous": false,
      "inputs": [
        {
          "indexed": false,
          "name": "entryId",
          "type": "uint256"
        }
      ],
      "name": "ApprovalRevoked",
      "type": "event"
    },
    {
      "anonymous": false,
      "inputs": [
        {
          "indexed": true,
          "name": "previousOwner",
          "type": "address"
        },
        {
          "indexed": true,
          "name": "newOwner",
          "type": "address"
        }
      ],
      "name": "OwnershipTransferred",
      "type": "event"
    }
  ],
  "bytecode": "0x606060405234156200001057600080fd5b604051602080620032dd8339810160405280805190602001909190505080808182838184806000806101000a81548173ffffffffffffffffffffffffffffffffffffffff021916908373ffffffffffffffffffffffffffffffffffffffff1602179055505060008173ffffffffffffffffffffffffffffffffffffffff16141515620000b657620000b533620000c3640100000000026200250a176401000000009004565b5b50505050505050620001bf565b6000809054906101000a900473ffffffffffffffffffffffffffffffffffffffff1673ffffffffffffffffffffffffffffffffffffffff1663ca446dd9826040518263ffffffff167c010000000000000000000000000000000000000000000000000000000002815260040180807f6f776e65720000000000000000000000000000000000000000000000000000008152506020018273ffffffffffffffffffffffffffffffffffffffff1673ffffffffffffffffffffffffffffffffffffffff168152602001915050600060405180830381600087803b1515620001a757600080fd5b6102c65a03f11515620001b957600080fd5b50505050565b61310e80620001cf6000396000f300606060405260043610610175576000357c0100000000000000000000000000000000000000000000000000000000900463ffffffff168063047913ce1461017a57806306fdde03146101cf5780630c54a71a1461025d57806318160ddd146102b257806338333d9e146102db5780633f0c3484146103375780634bf5efe6146103eb5780635bd6feec146104265780636352211e146104da5780636f1d8884146105115780637ca62997146105665780638033d58114610589578063893d20e8146105c4578063916b9bef146106195780639287e1161461063c5780639cc7f70814610698578063a2eb8927146106cf578063a6e77af114610747578063b1e130fc1461076a578063b260c42a1461078d578063ce03ffc9146107b0578063d461c36914610813578063dcbd32fe14610852578063e05a12201461088b578063eab3afe9146108dc578063eb84cae614610929578063f2fde38b1461098c578063f6f3e95f146109c5578063f745adfc14610a04575b600080fd5b341561018557600080fd5b61018d610a2d565b604051808273ffffffffffffffffffffffffffffffffffffffff1673ffffffffffffffffffffffffffffffffffffffff16815260200191505060405180910390f35b34156101da57600080fd5b6101e2610b07565b6040518080602001828103825283818151815260200191508051906020019080838360005b83811015610222578082015181840152602081019050610207565b50505050905090810190601f16801561024f5780820380516001836020036101000a031916815260200191505b509250505060405180910390f35b341561026857600080fd5b610270610b40565b604051808273ffffffffffffffffffffffffffffffffffffffff1673ffffffffffffffffffffffffffffffffffffffff16815260200191505060405180910390f35b34156102bd57600080fd5b6102c5610c1a565b6040518082815260200191505060405180910390f35b34156102e657600080fd5b610335600480803590602001909190803573ffffffffffffffffffffffffffffffffffffffff169060200190919080356000191690602001909190803560001916906020019091905050610cf4565b005b341561034257600080fd5b6103586004808035906020019091905050610d1d565b604051808573ffffffffffffffffffffffffffffffffffffffff1673ffffffffffffffffffffffffffffffffffffffff1681526020018473ffffffffffffffffffffffffffffffffffffffff1673ffffffffffffffffffffffffffffffffffffffff1681526020018360001916600019168152602001826000191660001916815260200194505050505060405180910390f35b34156103f657600080fd5b61040c6004808035906020019091905050610d56565b604051808215151515815260200191505060405180910390f35b341561043157600080fd5b6104476004808035906020019091905050610e57565b604051808573ffffffffffffffffffffffffffffffffffffffff1673ffffffffffffffffffffffffffffffffffffffff1681526020018473ffffffffffffffffffffffffffffffffffffffff1673ffffffffffffffffffffffffffffffffffffffff1681526020018360001916600019168152602001826000191660001916815260200194505050505060405180910390f35b34156104e557600080fd5b6104fb6004808035906020019091905050610e75565b6040518082815260200191505060405180910390f35b341561051c57600080fd5b610524610e9c565b604051808273ffffffffffffffffffffffffffffffffffffffff1673ffffffffffffffffffffffffffffffffffffffff16815260200191505060405180910390f35b341561057157600080fd5b6105876004808035906020019091905050610f76565b005b341561059457600080fd5b6105aa6004808035906020019091905050611025565b604051808215151515815260200191505060405180910390f35b34156105cf57600080fd5b6105d7611126565b604051808273ffffffffffffffffffffffffffffffffffffffff1673ffffffffffffffffffffffffffffffffffffffff16815260200191505060405180910390f35b341561062457600080fd5b61063a6004808035906020019091905050611200565b005b341561064757600080fd5b610696600480803590602001909190803573ffffffffffffffffffffffffffffffffffffffff16906020019091908035600019169060200190919080356000191690602001909190505061126d565b005b34156106a357600080fd5b6106b9600480803590602001909190505061127f565b6040518082815260200191505060405180910390f35b34156106da57600080fd5b6106f06004808035906020019091905050611380565b6040518080602001828103825283818151815260200191508051906020019060200280838360005b83811015610733578082015181840152602081019050610718565b505050509050019250505060405180910390f35b341561075257600080fd5b610768600480803590602001909190505061140b565b005b341561077557600080fd5b61078b600480803590602001909190505061151a565b005b341561079857600080fd5b6107ae60048080359060200190919050506115c8565b005b34156107bb57600080fd5b6107d16004808035906020019091905050611636565b604051808273ffffffffffffffffffffffffffffffffffffffff1673ffffffffffffffffffffffffffffffffffffffff16815260200191505060405180910390f35b341561081e57600080fd5b61083460048080359060200190919050506116e5565b60405180826000191660001916815260200191505060405180910390f35b341561085d57600080fd5b610889600480803573ffffffffffffffffffffffffffffffffffffffff169060200190919050506117e6565b005b341561089657600080fd5b6108c2600480803573ffffffffffffffffffffffffffffffffffffffff16906020019091905050611947565b604051808215151515815260200191505060405180910390f35b34156108e757600080fd5b610913600480803573ffffffffffffffffffffffffffffffffffffffff1690602001909190505061195b565b6040518082815260200191505060405180910390f35b341561093457600080fd5b61094a6004808035906020019091905050611a97565b604051808273ffffffffffffffffffffffffffffffffffffffff1673ffffffffffffffffffffffffffffffffffffffff16815260200191505060405180910390f35b341561099757600080fd5b6109c3600480803573ffffffffffffffffffffffffffffffffffffffff16906020019091905050611b98565b005b34156109d057600080fd5b6109e66004808035906020019091905050611c82565b60405180826000191660001916815260200191505060405180910390f35b3415610a0f57600080fd5b610a17611d83565b6040518082815260200191505060405180910390f35b60008060009054906101000a900473ffffffffffffffffffffffffffffffffffffffff1673ffffffffffffffffffffffffffffffffffffffff166321f8a7216000604051602001526040518163ffffffff167c010000000000000000000000000000000000000000000000000000000002815260040180807f626f74436f696e416464726573730000000000000000000000000000000000008152506020019050602060405180830381600087803b1515610ae757600080fd5b6102c65a03f11515610af857600080fd5b50505060405180519050905090565b6040805190810160405280601281526020017f426f74536572766963655265676973747279000000000000000000000000000081525081565b60008060009054906101000a900473ffffffffffffffffffffffffffffffffffffffff1673ffffffffffffffffffffffffffffffffffffffff166321f8a7216000604051602001526040518163ffffffff167c010000000000000000000000000000000000000000000000000000000002815260040180807f6f776e65725265676973747279416464726573730000000000000000000000008152506020019050602060405180830381600087803b1515610bfa57600080fd5b6102c65a03f11515610c0b57600080fd5b50505060405180519050905090565b60008060009054906101000a900473ffffffffffffffffffffffffffffffffffffffff1673ffffffffffffffffffffffffffffffffffffffff1663bd02d0f56000604051602001526040518163ffffffff167c010000000000000000000000000000000000000000000000000000000002815260040180807f746f74616c546f6b656e730000000000000000000000000000000000000000008152506020019050602060405180830381600087803b1515610cd457600080fd5b6102c65a03f11515610ce557600080fd5b50505060405180519050905090565b6000600102816000191614151515610d0b57600080fd5b610d1784848484611e5d565b50505050565b600080600080610d2c85611636565b9350610d3785611a97565b9250610d4285611c82565b9150610d4d856116e5565b90509193509193565b60008060009054906101000a900473ffffffffffffffffffffffffffffffffffffffff1673ffffffffffffffffffffffffffffffffffffffff16637ae1cfca8360405180807f617070726f76616c537461747573000000000000000000000000000000000000815250600e0182815260200191505060405180910390206000604051602001526040518263ffffffff167c0100000000000000000000000000000000000000000000000000000000028152600401808260001916600019168152602001915050602060405180830381600087803b1515610e3557600080fd5b6102c65a03f11515610e4657600080fd5b505050604051805190509050919050565b600080600080610e6685610d1d565b93509350935093509193509193565b600080610e81836120bb565b905060008114151515610e9357600080fd5b80915050919050565b60008060009054906101000a900473ffffffffffffffffffffffffffffffffffffffff1673ffffffffffffffffffffffffffffffffffffffff166321f8a7216000604051602001526040518163ffffffff167c010000000000000000000000000000000000000000000000000000000002815260040180807f74616c6c6157616c6c65740000000000000000000000000000000000000000008152506020019050602060405180830381600087803b1515610f5657600080fd5b6102c65a03f11515610f6757600080fd5b50505060405180519050905090565b610f7e611126565b73ffffffffffffffffffffffffffffffffffffffff163373ffffffffffffffffffffffffffffffffffffffff16141515610fb757600080fd5b610fc0816121bc565b1515610fcb57600080fd5b610fd481610d56565b151515610fe057600080fd5b610feb8160016121e7565b7ffd9d9585c7e646ed46689240252bb11f3229ac41fd7e8ef6a81c9e5e14760802816040518082815260200191505060405180910390a150565b60008060009054906101000a900473ffffffffffffffffffffffffffffffffffffffff1673ffffffffffffffffffffffffffffffffffffffff16637ae1cfca8360405180807f6163746976655374617475730000000000000000000000000000000000000000815250600c0182815260200191505060405180910390206000604051602001526040518263ffffffff167c0100000000000000000000000000000000000000000000000000000000028152600401808260001916600019168152602001915050602060405180830381600087803b151561110457600080fd5b6102c65a03f1151561111557600080fd5b505050604051805190509050919050565b60008060009054906101000a900473ffffffffffffffffffffffffffffffffffffffff1673ffffffffffffffffffffffffffffffffffffffff166321f8a7216000604051602001526040518163ffffffff167c010000000000000000000000000000000000000000000000000000000002815260040180807f6f776e65720000000000000000000000000000000000000000000000000000008152506020019050602060405180830381600087803b15156111e057600080fd5b6102c65a03f115156111f157600080fd5b50505060405180519050905090565b611209816122df565b151561121457600080fd5b61121d81611025565b151561122857600080fd5b611233816000612308565b7f642028127038cd17804be50978266c980dbd2234656c49d7f9c43f15985cf0ad816040518082815260200191505060405180910390a150565b61127984848484610cf4565b50505050565b60008060009054906101000a900473ffffffffffffffffffffffffffffffffffffffff1673ffffffffffffffffffffffffffffffffffffffff1663bd02d0f58360405180807f6f776e657242616c616e63657300000000000000000000000000000000000000815250600d0182815260200191505060405180910390206000604051602001526040518263ffffffff167c0100000000000000000000000000000000000000000000000000000000028152600401808260001916600019168152602001915050602060405180830381600087803b151561135e57600080fd5b6102c65a03f1151561136f57600080fd5b505050604051805190509050919050565b6113886130ce565b60006113926130ce565b600061139d8561127f565b9250826040518059106113ad5750595b90808252806020026020018201604052509150600090505b82811015611400576113d78582612400565b82828151811015156113e557fe5b906020019060200201818152505080806001019150506113c5565b819350505050919050565b611413611126565b73ffffffffffffffffffffffffffffffffffffffff163373ffffffffffffffffffffffffffffffffffffffff1614151561144c57600080fd5b6000809054906101000a900473ffffffffffffffffffffffffffffffffffffffff1673ffffffffffffffffffffffffffffffffffffffff1663e2a4853a826040518263ffffffff167c010000000000000000000000000000000000000000000000000000000002815260040180807f656e747279507269636500000000000000000000000000000000000000000000815250602001828152602001915050600060405180830381600087803b151561150357600080fd5b6102c65a03f1151561151457600080fd5b50505050565b611522611126565b73ffffffffffffffffffffffffffffffffffffffff163373ffffffffffffffffffffffffffffffffffffffff1614151561155b57600080fd5b611564816121bc565b151561156f57600080fd5b61157881610d56565b151561158357600080fd5b61158e8160006121e7565b7fb6718bd6b02cdd14f759530c19e5a31b0e130155a6b0df289a78a46aabbeebc4816040518082815260200191505060405180910390a150565b6115d1816122df565b15156115dc57600080fd5b6115e581611025565b1515156115f157600080fd5b6115fc816001612308565b7f973e7e4090a8638950965c1497c763e51c4264196dc51b8b7a0bac812917dbe7816040518082815260200191505060405180910390a150565b60008061164283610e75565b905061164c610b40565b73ffffffffffffffffffffffffffffffffffffffff1663ce03ffc9826000604051602001526040518263ffffffff167c010000000000000000000000000000000000000000000000000000000002815260040180828152602001915050602060405180830381600087803b15156116c257600080fd5b6102c65a03f115156116d357600080fd5b50505060405180519050915050919050565b60008060009054906101000a900473ffffffffffffffffffffffffffffffffffffffff1673ffffffffffffffffffffffffffffffffffffffff1663a6ed563e8360405180807f626f74456e74727955726c000000000000000000000000000000000000000000815250600b0182815260200191505060405180910390206000604051602001526040518263ffffffff167c0100000000000000000000000000000000000000000000000000000000028152600401808260001916600019168152602001915050602060405180830381600087803b15156117c457600080fd5b6102c65a03f115156117d557600080fd5b505050604051805190509050919050565b6117ee611126565b73ffffffffffffffffffffffffffffffffffffffff163373ffffffffffffffffffffffffffffffffffffffff1614151561182757600080fd5b60008173ffffffffffffffffffffffffffffffffffffffff161415151561184d57600080fd5b6000809054906101000a900473ffffffffffffffffffffffffffffffffffffffff1673ffffffffffffffffffffffffffffffffffffffff1663ca446dd9826040518263ffffffff167c010000000000000000000000000000000000000000000000000000000002815260040180807f74616c6c6157616c6c65740000000000000000000000000000000000000000008152506020018273ffffffffffffffffffffffffffffffffffffffff1673ffffffffffffffffffffffffffffffffffffffff168152602001915050600060405180830381600087803b151561193057600080fd5b6102c65a03f1151561194157600080fd5b50505050565b6000806119538361195b565b119050919050565b60008060009054906101000a900473ffffffffffffffffffffffffffffffffffffffff1673ffffffffffffffffffffffffffffffffffffffff1663bd02d0f58360405180807f626f74456e7472794964734279416464726573730000000000000000000000008152506014018273ffffffffffffffffffffffffffffffffffffffff1673ffffffffffffffffffffffffffffffffffffffff166c0100000000000000000000000002815260140191505060405180910390206000604051602001526040518263ffffffff167c0100000000000000000000000000000000000000000000000000000000028152600401808260001916600019168152602001915050602060405180830381600087803b1515611a7557600080fd5b6102c65a03f11515611a8657600080fd5b505050604051805190509050919050565b60008060009054906101000a900473ffffffffffffffffffffffffffffffffffffffff1673ffffffffffffffffffffffffffffffffffffffff166321f8a7218360405180807f626f74456e74727941646472657373657300000000000000000000000000000081525060110182815260200191505060405180910390206000604051602001526040518263ffffffff167c0100000000000000000000000000000000000000000000000000000000028152600401808260001916600019168152602001915050602060405180830381600087803b1515611b7657600080fd5b6102c65a03f11515611b8757600080fd5b505050604051805190509050919050565b611ba0611126565b73ffffffffffffffffffffffffffffffffffffffff163373ffffffffffffffffffffffffffffffffffffffff16141515611bd957600080fd5b600073ffffffffffffffffffffffffffffffffffffffff168173ffffffffffffffffffffffffffffffffffffffff1614151515611c1557600080fd5b8073ffffffffffffffffffffffffffffffffffffffff16611c34611126565b73ffffffffffffffffffffffffffffffffffffffff167f8be0079c531659141344cd1fd0a4f28419497f9722a3daafe3b4186f6b6457e060405160405180910390a3611c7f8161250a565b50565b60008060009054906101000a900473ffffffffffffffffffffffffffffffffffffffff1673ffffffffffffffffffffffffffffffffffffffff1663a6ed563e8360405180807f626f74456e74727944617461486173686573000000000000000000000000000081525060120182815260200191505060405180910390206000604051602001526040518263ffffffff167c0100000000000000000000000000000000000000000000000000000000028152600401808260001916600019168152602001915050602060405180830381600087803b1515611d6157600080fd5b6102c65a03f11515611d7257600080fd5b505050604051805190509050919050565b60008060009054906101000a900473ffffffffffffffffffffffffffffffffffffffff1673ffffffffffffffffffffffffffffffffffffffff1663bd02d0f56000604051602001526040518163ffffffff167c010000000000000000000000000000000000000000000000000000000002815260040180807f656e7472795072696365000000000000000000000000000000000000000000008152506020019050602060405180830381600087803b1515611e3d57600080fd5b6102c65a03f11515611e4e57600080fd5b50505060405180519050905090565b6000611e67610b40565b73ffffffffffffffffffffffffffffffffffffffff16639bf4e32433876000604051602001526040518363ffffffff167c0100000000000000000000000000000000000000000000000000000000028152600401808373ffffffffffffffffffffffffffffffffffffffff1673ffffffffffffffffffffffffffffffffffffffff16815260200182815260200192505050602060405180830381600087803b1515611f1157600080fd5b6102c65a03f11515611f2257600080fd5b505050604051805190501515611f3757600080fd5b60008473ffffffffffffffffffffffffffffffffffffffff1614151515611f5d57600080fd5b6000600102836000191614151515611f7457600080fd5b611f7d84611947565b151515611f8957600080fd5b611fa46001611f96610c1a565b61260490919063ffffffff16565b9050611fae612622565b611fb88582612734565b611fc3818585612752565b611fcd848261296b565b611fd78183612a9a565b611fe28160016121e7565b611fed816001612308565b7f06f8a425daea0f7f5288e36450441a759bac7681ac1807e8352a92da78d9ffc8818633878787604051808781526020018681526020018573ffffffffffffffffffffffffffffffffffffffff1673ffffffffffffffffffffffffffffffffffffffff1681526020018473ffffffffffffffffffffffffffffffffffffffff1673ffffffffffffffffffffffffffffffffffffffff16815260200183600019166000191681526020018260001916600019168152602001965050505050505060405180910390a15050505050565b60008060009054906101000a900473ffffffffffffffffffffffffffffffffffffffff1673ffffffffffffffffffffffffffffffffffffffff1663bd02d0f58360405180807f746f6b656e4f776e657273000000000000000000000000000000000000000000815250600b0182815260200191505060405180910390206000604051602001526040518263ffffffff167c0100000000000000000000000000000000000000000000000000000000028152600401808260001916600019168152602001915050602060405180830381600087803b151561219a57600080fd5b6102c65a03f115156121ab57600080fd5b505050604051805190509050919050565b6000806121c883611636565b73ffffffffffffffffffffffffffffffffffffffff1614159050919050565b6000809054906101000a900473ffffffffffffffffffffffffffffffffffffffff1673ffffffffffffffffffffffffffffffffffffffff1663abfdcced8360405180807f617070726f76616c537461747573000000000000000000000000000000000000815250600e018281526020019150506040518091039020836040518363ffffffff167c01000000000000000000000000000000000000000000000000000000000281526004018083600019166000191681526020018215151515815260200192505050600060405180830381600087803b15156122c757600080fd5b6102c65a03f115156122d857600080fd5b5050505050565b60003373ffffffffffffffffffffffffffffffffffffffff1661230183611636565b5050919050565b6000809054906101000a900473ffffffffffffffffffffffffffffffffffffffff1673ffffffffffffffffffffffffffffffffffffffff1663abfdcced8360405180807f6163746976655374617475730000000000000000000000000000000000000000815250600c018281526020019150506040518091039020836040518363ffffffff167c01000000000000000000000000000000000000000000000000000000000281526004018083600019166000191681526020018215151515815260200192505050600060405180830381600087803b15156123e857600080fd5b6102c65a03f115156123f957600080fd5b5050505050565b60008060009054906101000a900473ffffffffffffffffffffffffffffffffffffffff1673ffffffffffffffffffffffffffffffffffffffff1663bd02d0f5848460405180807f6f776e6564546f6b656e73000000000000000000000000000000000000000000815250600b018381526020018281526020019250505060405180910390206000604051602001526040518263ffffffff167c0100000000000000000000000000000000000000000000000000000000028152600401808260001916600019168152602001915050602060405180830381600087803b15156124e757600080fd5b6102c65a03f115156124f857600080fd5b50505060405180519050905092915050565b6000809054906101000a900473ffffffffffffffffffffffffffffffffffffffff1673ffffffffffffffffffffffffffffffffffffffff1663ca446dd9826040518263ffffffff167c010000000000000000000000000000000000000000000000000000000002815260040180807f6f776e65720000000000000000000000000000000000000000000000000000008152506020018273ffffffffffffffffffffffffffffffffffffffff1673ffffffffffffffffffffffffffffffffffffffff168152602001915050600060405180830381600087803b15156125ed57600080fd5b6102c65a03f115156125fe57600080fd5b50505050565b600080828401905083811015151561261857fe5b8091505092915050565b61262a610a2d565b73ffffffffffffffffffffffffffffffffffffffff166323b872dd3361264e610e9c565b612656611d83565b6000604051602001526040518463ffffffff167c0100000000000000000000000000000000000000000000000000000000028152600401808473ffffffffffffffffffffffffffffffffffffffff1673ffffffffffffffffffffffffffffffffffffffff1681526020018373ffffffffffffffffffffffffffffffffffffffff1673ffffffffffffffffffffffffffffffffffffffff1681526020018281526020019350505050602060405180830381600087803b151561271657600080fd5b6102c65a03f1151561272757600080fd5b5050506040518051905050565b6000821415151561274457600080fd5b61274e8282612b96565b5050565b6000809054906101000a900473ffffffffffffffffffffffffffffffffffffffff1673ffffffffffffffffffffffffffffffffffffffff1663ca446dd98460405180807f626f74456e7472794164647265737365730000000000000000000000000000008152506011018281526020019150506040518091039020846040518363ffffffff167c01000000000000000000000000000000000000000000000000000000000281526004018083600019166000191681526020018273ffffffffffffffffffffffffffffffffffffffff1673ffffffffffffffffffffffffffffffffffffffff16815260200192505050600060405180830381600087803b151561285a57600080fd5b6102c65a03f1151561286b57600080fd5b5050506000809054906101000a900473ffffffffffffffffffffffffffffffffffffffff1673ffffffffffffffffffffffffffffffffffffffff16634e91db088460405180807f626f74456e7472794461746148617368657300000000000000000000000000008152506012018281526020019150506040518091039020836040518363ffffffff167c0100000000000000000000000000000000000000000000000000000000028152600401808360001916600019168152602001826000191660001916815260200192505050600060405180830381600087803b151561295257600080fd5b6102c65a03f1151561296357600080fd5b505050505050565b6000809054906101000a900473ffffffffffffffffffffffffffffffffffffffff1673ffffffffffffffffffffffffffffffffffffffff1663e2a4853a8360405180807f626f74456e7472794964734279416464726573730000000000000000000000008152506014018273ffffffffffffffffffffffffffffffffffffffff1673ffffffffffffffffffffffffffffffffffffffff166c010000000000000000000000000281526014019150506040518091039020836040518363ffffffff167c010000000000000000000000000000000000000000000000000000000002815260040180836000191660001916815260200182815260200192505050600060405180830381600087803b1515612a8257600080fd5b6102c65a03f11515612a9357600080fd5b5050505050565b6000809054906101000a900473ffffffffffffffffffffffffffffffffffffffff1673ffffffffffffffffffffffffffffffffffffffff16634e91db088360405180807f626f74456e747279496400000000000000000000000000000000000000000000815250600a018281526020019150506040518091039020836040518363ffffffff167c0100000000000000000000000000000000000000000000000000000000028152600401808360001916600019168152602001826000191660001916815260200192505050600060405180830381600087803b1515612b7e57600080fd5b6102c65a03f11515612b8f57600080fd5b5050505050565b600080612ba2836120bb565b141515612bae57600080fd5b612bb88284612be4565b612bc18361127f565b9050612bcd8383612cd8565b612bd78282612de5565b612bdf612ed9565b505050565b6000809054906101000a900473ffffffffffffffffffffffffffffffffffffffff1673ffffffffffffffffffffffffffffffffffffffff1663e2a4853a8360405180807f746f6b656e4f776e657273000000000000000000000000000000000000000000815250600b018281526020019150506040518091039020836040518363ffffffff167c010000000000000000000000000000000000000000000000000000000002815260040180836000191660001916815260200182815260200192505050600060405180830381600087803b1515612cc057600080fd5b6102c65a03f11515612cd157600080fd5b5050505050565b6000809054906101000a900473ffffffffffffffffffffffffffffffffffffffff1673ffffffffffffffffffffffffffffffffffffffff1663e2a4853a83612d1f8561127f565b60405180807f6f776e6564546f6b656e73000000000000000000000000000000000000000000815250600b01838152602001828152602001925050506040518091039020836040518363ffffffff167c010000000000000000000000000000000000000000000000000000000002815260040180836000191660001916815260200182815260200192505050600060405180830381600087803b1515612dc457600080fd5b6102c65a03f11515612dd557600080fd5b505050612de182612fc0565b5050565b6000809054906101000a900473ffffffffffffffffffffffffffffffffffffffff1673ffffffffffffffffffffffffffffffffffffffff1663e2a4853a8360405180807f6f776e6564546f6b656e73496e646578000000000000000000000000000000008152506010018281526020019150506040518091039020836040518363ffffffff167c010000000000000000000000000000000000000000000000000000000002815260040180836000191660001916815260200182815260200192505050600060405180830381600087803b1515612ec157600080fd5b6102c65a03f11515612ed257600080fd5b5050505050565b6000809054906101000a900473ffffffffffffffffffffffffffffffffffffffff1673ffffffffffffffffffffffffffffffffffffffff1663e2a4853a612f316001612f23610c1a565b61260490919063ffffffff16565b6040518263ffffffff167c010000000000000000000000000000000000000000000000000000000002815260040180807f746f74616c546f6b656e73000000000000000000000000000000000000000000815250602001828152602001915050600060405180830381600087803b1515612faa57600080fd5b6102c65a03f11515612fbb57600080fd5b505050565b6000809054906101000a900473ffffffffffffffffffffffffffffffffffffffff1673ffffffffffffffffffffffffffffffffffffffff1663e2a4853a8260405180807f6f776e657242616c616e63657300000000000000000000000000000000000000815250600d01828152602001915050604051809103902061305760016130498661127f565b61260490919063ffffffff16565b6040518363ffffffff167c010000000000000000000000000000000000000000000000000000000002815260040180836000191660001916815260200182815260200192505050600060405180830381600087803b15156130b757600080fd5b6102c65a03f115156130c857600080fd5b50505050565b6020604051908101604052806000815250905600a165627a7a723058209d1fa949f9e11dc54cc9bb9fa95621696e180fa0bb9c9774a5883feeb0ed26770029",
  "source": "pragma solidity ^0.4.18;\n\nimport '../Registry/BotEntryStorableRegistry.sol';\n\n/**\n * @title BotServiceRegistryDelegate\n * @dev Delegate contract for functionality that handles ownership of bot services.\n *  Bot services belong to a developer. Ownership of a bot service is determined by\n *  the developer that the bot services belongs to.\n */\ncontract BotServiceRegistryDelegate is BotEntryStorableRegistry {\n\n  string public constant name = \"BotServiceRegistry\";\n\n  /**\n  * @dev Constructor for BotServiceRegistryDelegate\n  * @param storage_ address of a BaseStorage contract\n  */\n  function BotServiceRegistryDelegate(BaseStorage storage_)\n    BotEntryStorableRegistry(storage_)\n    public\n  {}\n\n  /**\n  * @dev Returns data for the given bot service ID\n  * @param botServiceId A bot service ID\n  * @return _owner The address that owns the bot service\n  * @return _botServiceAddress The address of the bot service\n  * @return _data A hash of data associated with the bot service\n  * @return _url A URL for the bot service\n  */\n  function getBotService(uint256 botServiceId) public view returns\n  (\n    address _owner,\n    address _botServiceAddress,\n    bytes32 _data,\n    bytes32 _url\n  ) {\n    return getBotEntry(botServiceId);\n  }\n\n  /**\n  * @dev Creates a new bot service.\n  * @param developerId ID for the developer that this bot service will belong to\n  * @param botServiceAddress Address of the bot service\n  * @param dataHash Hash of data associated with the bot service\n  * @param url A URL associated with this bot service\n  */\n  function createBotService(\n    uint256 developerId, \n    address botServiceAddress, \n    bytes32 dataHash,\n    bytes32 url\n  )\n    public \n  {\n    createBotEntry(developerId, botServiceAddress, dataHash, url);\n  }\n\n  /**\n  * @dev Override for BotEntryStorableRegistry.createBotEntry()\n  */\n  function createBotEntry(\n    uint256 developerId, \n    address botServiceAddress, \n    bytes32 dataHash,\n    bytes32 url\n  )\n    public\n  {\n    require(url != 0x0);\n    super.createBotEntry(developerId, botServiceAddress, dataHash, url);\n  }\n\n}\n",
  "sourcePath": "/Volumes/workspace/_projects/talla/botchain/contracts/Delegates/BotServiceRegistryDelegate.sol",
  "compiler": {
    "name": "solc",
    "version": "0.4.18+commit.9cf6e910.Emscripten.clang"
  },
  "schemaVersion": "1.0.1",
  "updatedAt": "2018-03-21T17:35:41.913Z"
}