{
  "contractName": "DeveloperRegistryDelegate",
  "abi": [
    {
      "constant": true,
      "inputs": [],
      "name": "botCoin",
      "outputs": [
        {
          "name": "",
          "type": "address"
        }
      ],
      "payable": false,
      "stateMutability": "view",
      "type": "function"
    },
    {
      "constant": false,
      "inputs": [
        {
          "name": "_to",
          "type": "address"
        },
        {
          "name": "_tokenId",
          "type": "uint256"
        }
      ],
      "name": "approve",
      "outputs": [],
      "payable": false,
      "stateMutability": "nonpayable",
      "type": "function"
    },
    {
      "constant": true,
      "inputs": [
        {
          "name": "developerId",
          "type": "uint256"
        }
      ],
      "name": "developerDataHash",
      "outputs": [
        {
          "name": "",
          "type": "bytes32"
        }
      ],
      "payable": false,
      "stateMutability": "view",
      "type": "function"
    },
    {
      "constant": true,
      "inputs": [],
      "name": "totalSupply",
      "outputs": [
        {
          "name": "",
          "type": "uint256"
        }
      ],
      "payable": false,
      "stateMutability": "view",
      "type": "function"
    },
    {
      "constant": true,
      "inputs": [
        {
          "name": "_tokenId",
          "type": "uint256"
        }
      ],
      "name": "approvedFor",
      "outputs": [
        {
          "name": "",
          "type": "address"
        }
      ],
      "payable": false,
      "stateMutability": "view",
      "type": "function"
    },
    {
      "constant": true,
      "inputs": [
        {
          "name": "_entryId",
          "type": "uint256"
        }
      ],
      "name": "approvalStatus",
      "outputs": [
        {
          "name": "",
          "type": "bool"
        }
      ],
      "payable": false,
      "stateMutability": "view",
      "type": "function"
    },
    {
      "constant": true,
      "inputs": [
        {
          "name": "_owner",
          "type": "address"
        }
      ],
      "name": "tokensOf",
      "outputs": [
        {
          "name": "",
          "type": "uint256[]"
        }
      ],
      "payable": false,
      "stateMutability": "view",
      "type": "function"
    },
    {
      "constant": true,
      "inputs": [
        {
          "name": "_tokenId",
          "type": "uint256"
        }
      ],
      "name": "ownerOf",
      "outputs": [
        {
          "name": "",
          "type": "address"
        }
      ],
      "payable": false,
      "stateMutability": "view",
      "type": "function"
    },
    {
      "constant": true,
      "inputs": [],
      "name": "tallaWallet",
      "outputs": [
        {
          "name": "",
          "type": "address"
        }
      ],
      "payable": false,
      "stateMutability": "view",
      "type": "function"
    },
    {
      "constant": true,
      "inputs": [
        {
          "name": "_owner",
          "type": "address"
        }
      ],
      "name": "balanceOf",
      "outputs": [
        {
          "name": "",
          "type": "uint256"
        }
      ],
      "payable": false,
      "stateMutability": "view",
      "type": "function"
    },
    {
      "constant": false,
      "inputs": [
        {
          "name": "_entryId",
          "type": "uint256"
        }
      ],
      "name": "grantApproval",
      "outputs": [],
      "payable": false,
      "stateMutability": "nonpayable",
      "type": "function"
    },
    {
      "constant": true,
      "inputs": [],
      "name": "getOwner",
      "outputs": [
        {
          "name": "",
          "type": "address"
        }
      ],
      "payable": false,
      "stateMutability": "view",
      "type": "function"
    },
    {
      "constant": true,
      "inputs": [
        {
          "name": "minter",
          "type": "address"
        },
        {
          "name": "_developerId",
          "type": "uint256"
        }
      ],
      "name": "mintingAllowed",
      "outputs": [
        {
          "name": "",
          "type": "bool"
        }
      ],
      "payable": false,
      "stateMutability": "view",
      "type": "function"
    },
    {
      "constant": false,
      "inputs": [
        {
          "name": "_data",
          "type": "bytes32"
        },
        {
          "name": "_url",
          "type": "bytes32"
        }
      ],
      "name": "addDeveloper",
      "outputs": [],
      "payable": false,
      "stateMutability": "nonpayable",
      "type": "function"
    },
    {
      "constant": false,
      "inputs": [
        {
          "name": "entryPrice",
          "type": "uint256"
        }
      ],
      "name": "setEntryPrice",
      "outputs": [],
      "payable": false,
      "stateMutability": "nonpayable",
      "type": "function"
    },
    {
      "constant": false,
      "inputs": [
        {
          "name": "_to",
          "type": "address"
        },
        {
          "name": "_tokenId",
          "type": "uint256"
        }
      ],
      "name": "transfer",
      "outputs": [],
      "payable": false,
      "stateMutability": "nonpayable",
      "type": "function"
    },
    {
      "constant": false,
      "inputs": [
        {
          "name": "_entryId",
          "type": "uint256"
        }
      ],
      "name": "revokeApproval",
      "outputs": [],
      "payable": false,
      "stateMutability": "nonpayable",
      "type": "function"
    },
    {
      "constant": false,
      "inputs": [
        {
          "name": "_tokenId",
          "type": "uint256"
        }
      ],
      "name": "takeOwnership",
      "outputs": [],
      "payable": false,
      "stateMutability": "nonpayable",
      "type": "function"
    },
    {
      "constant": true,
      "inputs": [
        {
          "name": "_developerId",
          "type": "uint256"
        }
      ],
      "name": "ownerOfEntry",
      "outputs": [
        {
          "name": "_owner",
          "type": "address"
        }
      ],
      "payable": false,
      "stateMutability": "view",
      "type": "function"
    },
    {
      "constant": true,
      "inputs": [
        {
          "name": "developerId",
          "type": "uint256"
        }
      ],
      "name": "developerUrl",
      "outputs": [
        {
          "name": "",
          "type": "bytes32"
        }
      ],
      "payable": false,
      "stateMutability": "view",
      "type": "function"
    },
    {
      "constant": false,
      "inputs": [
        {
          "name": "tallaWallet",
          "type": "address"
        }
      ],
      "name": "setTallaWallet",
      "outputs": [],
      "payable": false,
      "stateMutability": "nonpayable",
      "type": "function"
    },
    {
      "constant": false,
      "inputs": [
        {
          "name": "newOwner",
          "type": "address"
        }
      ],
      "name": "transferOwnership",
      "outputs": [],
      "payable": false,
      "stateMutability": "nonpayable",
      "type": "function"
    },
    {
      "constant": true,
      "inputs": [],
      "name": "entryPrice",
      "outputs": [
        {
          "name": "",
          "type": "uint256"
        }
      ],
      "payable": false,
      "stateMutability": "view",
      "type": "function"
    },
    {
      "constant": true,
      "inputs": [
        {
          "name": "owner",
          "type": "address"
        }
      ],
      "name": "owns",
      "outputs": [
        {
          "name": "",
          "type": "uint256"
        }
      ],
      "payable": false,
      "stateMutability": "view",
      "type": "function"
    },
    {
      "inputs": [
        {
          "name": "storage_",
          "type": "address"
        }
      ],
      "payable": false,
      "stateMutability": "nonpayable",
      "type": "constructor"
    },
    {
      "anonymous": false,
      "inputs": [
        {
          "indexed": false,
          "name": "owner",
          "type": "address"
        },
        {
          "indexed": false,
          "name": "developerId",
          "type": "uint256"
        },
        {
          "indexed": false,
          "name": "dataHash",
          "type": "bytes32"
        },
        {
          "indexed": false,
          "name": "url",
          "type": "bytes32"
        }
      ],
      "name": "DeveloperAdded",
      "type": "event"
    },
    {
      "anonymous": false,
      "inputs": [
        {
          "indexed": true,
          "name": "_from",
          "type": "address"
        },
        {
          "indexed": true,
          "name": "_to",
          "type": "address"
        },
        {
          "indexed": false,
          "name": "_tokenId",
          "type": "uint256"
        }
      ],
      "name": "Transfer",
      "type": "event"
    },
    {
      "anonymous": false,
      "inputs": [
        {
          "indexed": true,
          "name": "_owner",
          "type": "address"
        },
        {
          "indexed": true,
          "name": "_approved",
          "type": "address"
        },
        {
          "indexed": false,
          "name": "_tokenId",
          "type": "uint256"
        }
      ],
      "name": "Approval",
      "type": "event"
    },
    {
      "anonymous": false,
      "inputs": [
        {
          "indexed": false,
          "name": "entryId",
          "type": "uint256"
        }
      ],
      "name": "ApprovalGranted",
      "type": "event"
    },
    {
      "anonymous": false,
      "inputs": [
        {
          "indexed": false,
          "name": "entryId",
          "type": "uint256"
        }
      ],
      "name": "ApprovalRevoked",
      "type": "event"
    },
    {
      "anonymous": false,
      "inputs": [
        {
          "indexed": true,
          "name": "previousOwner",
          "type": "address"
        },
        {
          "indexed": true,
          "name": "newOwner",
          "type": "address"
        }
      ],
      "name": "OwnershipTransferred",
      "type": "event"
    }
  ],
  "bytecode": "0x606060405234156200001057600080fd5b60405160208062003567833981016040528080519060200190919050508081828183806000806101000a81548173ffffffffffffffffffffffffffffffffffffffff021916908373ffffffffffffffffffffffffffffffffffffffff1602179055505060008173ffffffffffffffffffffffffffffffffffffffff16141515620000b457620000b333620000bf640100000000026200266e176401000000009004565b5b5050505050620001bb565b6000809054906101000a900473ffffffffffffffffffffffffffffffffffffffff1673ffffffffffffffffffffffffffffffffffffffff1663ca446dd9826040518263ffffffff167c010000000000000000000000000000000000000000000000000000000002815260040180807f6f776e65720000000000000000000000000000000000000000000000000000008152506020018273ffffffffffffffffffffffffffffffffffffffff1673ffffffffffffffffffffffffffffffffffffffff168152602001915050600060405180830381600087803b1515620001a357600080fd5b6102c65a03f11515620001b557600080fd5b50505050565b61339c80620001cb6000396000f30060606040526004361061013e576000357c0100000000000000000000000000000000000000000000000000000000900463ffffffff168063047913ce14610143578063095ea7b31461019857806316a6b957146101da57806318160ddd146102195780632a6dd48f146102425780634bf5efe6146102a55780635a3f2672146102e05780636352211e1461036e5780636f1d8884146103d157806370a08231146104265780637ca6299714610473578063893d20e8146104965780639bf4e324146104eb5780639ce91dfc14610545578063a6e77af114610579578063a9059cbb1461059c578063b1e130fc146105de578063b2e6ceeb14610601578063ce03ffc914610624578063dad5d12914610687578063dcbd32fe146106c6578063f2fde38b146106ff578063f745adfc14610738578063f7bc39bf14610761575b600080fd5b341561014e57600080fd5b6101566107ae565b604051808273ffffffffffffffffffffffffffffffffffffffff1673ffffffffffffffffffffffffffffffffffffffff16815260200191505060405180910390f35b34156101a357600080fd5b6101d8600480803573ffffffffffffffffffffffffffffffffffffffff16906020019091908035906020019091905050610888565b005b34156101e557600080fd5b6101fb60048080359060200190919050506109d3565b60405180826000191660001916815260200191505060405180910390f35b341561022457600080fd5b61022c610ad4565b6040518082815260200191505060405180910390f35b341561024d57600080fd5b6102636004808035906020019091905050610bae565b604051808273ffffffffffffffffffffffffffffffffffffffff1673ffffffffffffffffffffffffffffffffffffffff16815260200191505060405180910390f35b34156102b057600080fd5b6102c66004808035906020019091905050610bc0565b604051808215151515815260200191505060405180910390f35b34156102eb57600080fd5b610317600480803573ffffffffffffffffffffffffffffffffffffffff16906020019091905050610cc1565b6040518080602001828103825283818151815260200191508051906020019060200280838360005b8381101561035a57808201518184015260208101905061033f565b505050509050019250505060405180910390f35b341561037957600080fd5b61038f6004808035906020019091905050610d4c565b604051808273ffffffffffffffffffffffffffffffffffffffff1673ffffffffffffffffffffffffffffffffffffffff16815260200191505060405180910390f35b34156103dc57600080fd5b6103e4610d9f565b604051808273ffffffffffffffffffffffffffffffffffffffff1673ffffffffffffffffffffffffffffffffffffffff16815260200191505060405180910390f35b341561043157600080fd5b61045d600480803573ffffffffffffffffffffffffffffffffffffffff16906020019091905050610e79565b6040518082815260200191505060405180910390f35b341561047e57600080fd5b6104946004808035906020019091905050610fb5565b005b34156104a157600080fd5b6104a9611064565b604051808273ffffffffffffffffffffffffffffffffffffffff1673ffffffffffffffffffffffffffffffffffffffff16815260200191505060405180910390f35b34156104f657600080fd5b61052b600480803573ffffffffffffffffffffffffffffffffffffffff1690602001909190803590602001909190505061113e565b604051808215151515815260200191505060405180910390f35b341561055057600080fd5b61057760048080356000191690602001909190803560001916906020019091905050611197565b005b341561058457600080fd5b61059a60048080359060200190919050506112ba565b005b34156105a757600080fd5b6105dc600480803573ffffffffffffffffffffffffffffffffffffffff169060200190919080359060200190919050506113c9565b005b34156105e957600080fd5b6105ff600480803590602001909190505061141c565b005b341561060c57600080fd5b61062260048080359060200190919050506114ca565b005b341561062f57600080fd5b61064560048080359060200190919050506114f5565b604051808273ffffffffffffffffffffffffffffffffffffffff1673ffffffffffffffffffffffffffffffffffffffff16815260200191505060405180910390f35b341561069257600080fd5b6106a86004808035906020019091905050611507565b60405180826000191660001916815260200191505060405180910390f35b34156106d157600080fd5b6106fd600480803573ffffffffffffffffffffffffffffffffffffffff16906020019091905050611608565b005b341561070a57600080fd5b610736600480803573ffffffffffffffffffffffffffffffffffffffff16906020019091905050611769565b005b341561074357600080fd5b61074b611853565b6040518082815260200191505060405180910390f35b341561076c57600080fd5b610798600480803573ffffffffffffffffffffffffffffffffffffffff1690602001909190505061192d565b6040518082815260200191505060405180910390f35b60008060009054906101000a900473ffffffffffffffffffffffffffffffffffffffff1673ffffffffffffffffffffffffffffffffffffffff166321f8a7216000604051602001526040518163ffffffff167c010000000000000000000000000000000000000000000000000000000002815260040180807f626f74436f696e416464726573730000000000000000000000000000000000008152506020019050602060405180830381600087803b151561086857600080fd5b6102c65a03f1151561087957600080fd5b50505060405180519050905090565b6000813373ffffffffffffffffffffffffffffffffffffffff166108ab82610d4c565b73ffffffffffffffffffffffffffffffffffffffff161415156108cd57600080fd5b6108d683610d4c565b91508173ffffffffffffffffffffffffffffffffffffffff168473ffffffffffffffffffffffffffffffffffffffff161415151561091357600080fd5b600061091e84610bae565b73ffffffffffffffffffffffffffffffffffffffff16141580610958575060008473ffffffffffffffffffffffffffffffffffffffff1614155b156109cd576109678385611a69565b8373ffffffffffffffffffffffffffffffffffffffff168273ffffffffffffffffffffffffffffffffffffffff167f8c5be1e5ebec7d5bd14f71427d1e84f3dd0314c0f7b2291e5b200ac8c7c3b925856040518082815260200191505060405180910390a35b50505050565b60008060009054906101000a900473ffffffffffffffffffffffffffffffffffffffff1673ffffffffffffffffffffffffffffffffffffffff1663a6ed563e8360405180807f646576656c6f706572446174614861736800000000000000000000000000000081525060110182815260200191505060405180910390206000604051602001526040518263ffffffff167c0100000000000000000000000000000000000000000000000000000000028152600401808260001916600019168152602001915050602060405180830381600087803b1515610ab257600080fd5b6102c65a03f11515610ac357600080fd5b505050604051805190509050919050565b60008060009054906101000a900473ffffffffffffffffffffffffffffffffffffffff1673ffffffffffffffffffffffffffffffffffffffff1663bd02d0f56000604051602001526040518163ffffffff167c010000000000000000000000000000000000000000000000000000000002815260040180807f746f74616c546f6b656e730000000000000000000000000000000000000000008152506020019050602060405180830381600087803b1515610b8e57600080fd5b6102c65a03f11515610b9f57600080fd5b50505060405180519050905090565b6000610bb982611b89565b9050919050565b60008060009054906101000a900473ffffffffffffffffffffffffffffffffffffffff1673ffffffffffffffffffffffffffffffffffffffff16637ae1cfca8360405180807f617070726f76616c537461747573000000000000000000000000000000000000815250600e0182815260200191505060405180910390206000604051602001526040518263ffffffff167c0100000000000000000000000000000000000000000000000000000000028152600401808260001916600019168152602001915050602060405180830381600087803b1515610c9f57600080fd5b6102c65a03f11515610cb057600080fd5b505050604051805190509050919050565b610cc961335c565b6000610cd361335c565b6000610cde85610e79565b925082604051805910610cee5750595b90808252806020026020018201604052509150600090505b82811015610d4157610d188582611c8a565b8282815181101515610d2657fe5b90602001906020020181815250508080600101915050610d06565b819350505050919050565b600080610d5883611dcf565b9050600073ffffffffffffffffffffffffffffffffffffffff168173ffffffffffffffffffffffffffffffffffffffff1614151515610d9657600080fd5b80915050919050565b60008060009054906101000a900473ffffffffffffffffffffffffffffffffffffffff1673ffffffffffffffffffffffffffffffffffffffff166321f8a7216000604051602001526040518163ffffffff167c010000000000000000000000000000000000000000000000000000000002815260040180807f74616c6c6157616c6c65740000000000000000000000000000000000000000008152506020019050602060405180830381600087803b1515610e5957600080fd5b6102c65a03f11515610e6a57600080fd5b50505060405180519050905090565b60008060009054906101000a900473ffffffffffffffffffffffffffffffffffffffff1673ffffffffffffffffffffffffffffffffffffffff1663bd02d0f58360405180807f6f776e657242616c616e63657300000000000000000000000000000000000000815250600d018273ffffffffffffffffffffffffffffffffffffffff1673ffffffffffffffffffffffffffffffffffffffff166c0100000000000000000000000002815260140191505060405180910390206000604051602001526040518263ffffffff167c0100000000000000000000000000000000000000000000000000000000028152600401808260001916600019168152602001915050602060405180830381600087803b1515610f9357600080fd5b6102c65a03f11515610fa457600080fd5b505050604051805190509050919050565b610fbd611064565b73ffffffffffffffffffffffffffffffffffffffff163373ffffffffffffffffffffffffffffffffffffffff16141515610ff657600080fd5b610fff81611ed0565b151561100a57600080fd5b61101381610bc0565b15151561101f57600080fd5b61102a816001611efb565b7ffd9d9585c7e646ed46689240252bb11f3229ac41fd7e8ef6a81c9e5e14760802816040518082815260200191505060405180910390a150565b60008060009054906101000a900473ffffffffffffffffffffffffffffffffffffffff1673ffffffffffffffffffffffffffffffffffffffff166321f8a7216000604051602001526040518163ffffffff167c010000000000000000000000000000000000000000000000000000000002815260040180807f6f776e65720000000000000000000000000000000000000000000000000000008152506020019050602060405180830381600087803b151561111e57600080fd5b6102c65a03f1151561112f57600080fd5b50505060405180519050905090565b60008273ffffffffffffffffffffffffffffffffffffffff1661116083610d4c565b73ffffffffffffffffffffffffffffffffffffffff1614801561118f57506001151561118b83610bc0565b1515145b905092915050565b6000806111a33361192d565b1415156111af57600080fd5b60006001028360001916141515156111c657600080fd5b60006001028260001916141515156111dd57600080fd5b6111f860016111ea610ad4565b611ff390919063ffffffff16565b90506112048184612011565b61120e818361210d565b6112183382612209565b611220612338565b61122a338261244a565b7f4c5c609c26d79b0760c566039ee2991b035748db99b20356f9de6b0633c5e4ef33828585604051808573ffffffffffffffffffffffffffffffffffffffff1673ffffffffffffffffffffffffffffffffffffffff1681526020018481526020018360001916600019168152602001826000191660001916815260200194505050505060405180910390a1505050565b6112c2611064565b73ffffffffffffffffffffffffffffffffffffffff163373ffffffffffffffffffffffffffffffffffffffff161415156112fb57600080fd5b6000809054906101000a900473ffffffffffffffffffffffffffffffffffffffff1673ffffffffffffffffffffffffffffffffffffffff1663e2a4853a826040518263ffffffff167c010000000000000000000000000000000000000000000000000000000002815260040180807f656e747279507269636500000000000000000000000000000000000000000000815250602001828152602001915050600060405180830381600087803b15156113b257600080fd5b6102c65a03f115156113c357600080fd5b50505050565b803373ffffffffffffffffffffffffffffffffffffffff166113ea82610d4c565b73ffffffffffffffffffffffffffffffffffffffff1614151561140c57600080fd5b6114173384846124e4565b505050565b611424611064565b73ffffffffffffffffffffffffffffffffffffffff163373ffffffffffffffffffffffffffffffffffffffff1614151561145d57600080fd5b61146681611ed0565b151561147157600080fd5b61147a81610bc0565b151561148557600080fd5b611490816000611efb565b7fb6718bd6b02cdd14f759530c19e5a31b0e130155a6b0df289a78a46aabbeebc4816040518082815260200191505060405180910390a150565b6114d4338261262d565b15156114df57600080fd5b6114f26114eb82610d4c565b33836124e4565b50565b600061150082610d4c565b9050919050565b60008060009054906101000a900473ffffffffffffffffffffffffffffffffffffffff1673ffffffffffffffffffffffffffffffffffffffff1663a6ed563e8360405180807f646576656c6f70657255726c0000000000000000000000000000000000000000815250600c0182815260200191505060405180910390206000604051602001526040518263ffffffff167c0100000000000000000000000000000000000000000000000000000000028152600401808260001916600019168152602001915050602060405180830381600087803b15156115e657600080fd5b6102c65a03f115156115f757600080fd5b505050604051805190509050919050565b611610611064565b73ffffffffffffffffffffffffffffffffffffffff163373ffffffffffffffffffffffffffffffffffffffff1614151561164957600080fd5b60008173ffffffffffffffffffffffffffffffffffffffff161415151561166f57600080fd5b6000809054906101000a900473ffffffffffffffffffffffffffffffffffffffff1673ffffffffffffffffffffffffffffffffffffffff1663ca446dd9826040518263ffffffff167c010000000000000000000000000000000000000000000000000000000002815260040180807f74616c6c6157616c6c65740000000000000000000000000000000000000000008152506020018273ffffffffffffffffffffffffffffffffffffffff1673ffffffffffffffffffffffffffffffffffffffff168152602001915050600060405180830381600087803b151561175257600080fd5b6102c65a03f1151561176357600080fd5b50505050565b611771611064565b73ffffffffffffffffffffffffffffffffffffffff163373ffffffffffffffffffffffffffffffffffffffff161415156117aa57600080fd5b600073ffffffffffffffffffffffffffffffffffffffff168173ffffffffffffffffffffffffffffffffffffffff16141515156117e657600080fd5b8073ffffffffffffffffffffffffffffffffffffffff16611805611064565b73ffffffffffffffffffffffffffffffffffffffff167f8be0079c531659141344cd1fd0a4f28419497f9722a3daafe3b4186f6b6457e060405160405180910390a36118508161266e565b50565b60008060009054906101000a900473ffffffffffffffffffffffffffffffffffffffff1673ffffffffffffffffffffffffffffffffffffffff1663bd02d0f56000604051602001526040518163ffffffff167c010000000000000000000000000000000000000000000000000000000002815260040180807f656e7472795072696365000000000000000000000000000000000000000000008152506020019050602060405180830381600087803b151561190d57600080fd5b6102c65a03f1151561191e57600080fd5b50505060405180519050905090565b60008060009054906101000a900473ffffffffffffffffffffffffffffffffffffffff1673ffffffffffffffffffffffffffffffffffffffff1663bd02d0f58360405180807f6f776e6572546f496400000000000000000000000000000000000000000000008152506009018273ffffffffffffffffffffffffffffffffffffffff1673ffffffffffffffffffffffffffffffffffffffff166c0100000000000000000000000002815260140191505060405180910390206000604051602001526040518263ffffffff167c0100000000000000000000000000000000000000000000000000000000028152600401808260001916600019168152602001915050602060405180830381600087803b1515611a4757600080fd5b6102c65a03f11515611a5857600080fd5b505050604051805190509050919050565b6000809054906101000a900473ffffffffffffffffffffffffffffffffffffffff1673ffffffffffffffffffffffffffffffffffffffff1663ca446dd98360405180807f746f6b656e417070726f76616c73000000000000000000000000000000000000815250600e018281526020019150506040518091039020836040518363ffffffff167c01000000000000000000000000000000000000000000000000000000000281526004018083600019166000191681526020018273ffffffffffffffffffffffffffffffffffffffff1673ffffffffffffffffffffffffffffffffffffffff16815260200192505050600060405180830381600087803b1515611b7157600080fd5b6102c65a03f11515611b8257600080fd5b5050505050565b60008060009054906101000a900473ffffffffffffffffffffffffffffffffffffffff1673ffffffffffffffffffffffffffffffffffffffff166321f8a7218360405180807f746f6b656e417070726f76616c73000000000000000000000000000000000000815250600e0182815260200191505060405180910390206000604051602001526040518263ffffffff167c0100000000000000000000000000000000000000000000000000000000028152600401808260001916600019168152602001915050602060405180830381600087803b1515611c6857600080fd5b6102c65a03f11515611c7957600080fd5b505050604051805190509050919050565b60008060009054906101000a900473ffffffffffffffffffffffffffffffffffffffff1673ffffffffffffffffffffffffffffffffffffffff1663bd02d0f5848460405180807f6f776e6564546f6b656e73000000000000000000000000000000000000000000815250600b018373ffffffffffffffffffffffffffffffffffffffff1673ffffffffffffffffffffffffffffffffffffffff166c010000000000000000000000000281526014018281526020019250505060405180910390206000604051602001526040518263ffffffff167c0100000000000000000000000000000000000000000000000000000000028152600401808260001916600019168152602001915050602060405180830381600087803b1515611dac57600080fd5b6102c65a03f11515611dbd57600080fd5b50505060405180519050905092915050565b60008060009054906101000a900473ffffffffffffffffffffffffffffffffffffffff1673ffffffffffffffffffffffffffffffffffffffff166321f8a7218360405180807f746f6b656e4f776e657273000000000000000000000000000000000000000000815250600b0182815260200191505060405180910390206000604051602001526040518263ffffffff167c0100000000000000000000000000000000000000000000000000000000028152600401808260001916600019168152602001915050602060405180830381600087803b1515611eae57600080fd5b6102c65a03f11515611ebf57600080fd5b505050604051805190509050919050565b600080611edc83610d4c565b73ffffffffffffffffffffffffffffffffffffffff1614159050919050565b6000809054906101000a900473ffffffffffffffffffffffffffffffffffffffff1673ffffffffffffffffffffffffffffffffffffffff1663abfdcced8360405180807f617070726f76616c537461747573000000000000000000000000000000000000815250600e018281526020019150506040518091039020836040518363ffffffff167c01000000000000000000000000000000000000000000000000000000000281526004018083600019166000191681526020018215151515815260200192505050600060405180830381600087803b1515611fdb57600080fd5b6102c65a03f11515611fec57600080fd5b5050505050565b600080828401905083811015151561200757fe5b8091505092915050565b6000809054906101000a900473ffffffffffffffffffffffffffffffffffffffff1673ffffffffffffffffffffffffffffffffffffffff16634e91db088360405180807f646576656c6f70657244617461486173680000000000000000000000000000008152506011018281526020019150506040518091039020836040518363ffffffff167c0100000000000000000000000000000000000000000000000000000000028152600401808360001916600019168152602001826000191660001916815260200192505050600060405180830381600087803b15156120f557600080fd5b6102c65a03f1151561210657600080fd5b5050505050565b6000809054906101000a900473ffffffffffffffffffffffffffffffffffffffff1673ffffffffffffffffffffffffffffffffffffffff16634e91db088360405180807f646576656c6f70657255726c0000000000000000000000000000000000000000815250600c018281526020019150506040518091039020836040518363ffffffff167c0100000000000000000000000000000000000000000000000000000000028152600401808360001916600019168152602001826000191660001916815260200192505050600060405180830381600087803b15156121f157600080fd5b6102c65a03f1151561220257600080fd5b5050505050565b6000809054906101000a900473ffffffffffffffffffffffffffffffffffffffff1673ffffffffffffffffffffffffffffffffffffffff1663e2a4853a8360405180807f6f776e6572546f496400000000000000000000000000000000000000000000008152506009018273ffffffffffffffffffffffffffffffffffffffff1673ffffffffffffffffffffffffffffffffffffffff166c010000000000000000000000000281526014019150506040518091039020836040518363ffffffff167c010000000000000000000000000000000000000000000000000000000002815260040180836000191660001916815260200182815260200192505050600060405180830381600087803b151561232057600080fd5b6102c65a03f1151561233157600080fd5b5050505050565b6123406107ae565b73ffffffffffffffffffffffffffffffffffffffff166323b872dd33612364610d9f565b61236c611853565b6000604051602001526040518463ffffffff167c0100000000000000000000000000000000000000000000000000000000028152600401808473ffffffffffffffffffffffffffffffffffffffff1673ffffffffffffffffffffffffffffffffffffffff1681526020018373ffffffffffffffffffffffffffffffffffffffff1673ffffffffffffffffffffffffffffffffffffffff1681526020018281526020019350505050602060405180830381600087803b151561242c57600080fd5b6102c65a03f1151561243d57600080fd5b5050506040518051905050565b600073ffffffffffffffffffffffffffffffffffffffff168273ffffffffffffffffffffffffffffffffffffffff161415151561248657600080fd5b6124908282612768565b8173ffffffffffffffffffffffffffffffffffffffff1660007fddf252ad1be2c89b69c2b068fc378daa952ba7f163c4a11628f55a4df523b3ef836040518082815260200191505060405180910390a35050565b600073ffffffffffffffffffffffffffffffffffffffff168273ffffffffffffffffffffffffffffffffffffffff161415151561252057600080fd5b61252981610d4c565b73ffffffffffffffffffffffffffffffffffffffff168273ffffffffffffffffffffffffffffffffffffffff161415151561256357600080fd5b8273ffffffffffffffffffffffffffffffffffffffff1661258382610d4c565b73ffffffffffffffffffffffffffffffffffffffff161415156125a557600080fd5b6125af83826127e2565b6125b98382612883565b6125c38282612768565b8173ffffffffffffffffffffffffffffffffffffffff168373ffffffffffffffffffffffffffffffffffffffff167fddf252ad1be2c89b69c2b068fc378daa952ba7f163c4a11628f55a4df523b3ef836040518082815260200191505060405180910390a3505050565b60008273ffffffffffffffffffffffffffffffffffffffff1661264f83610bae565b73ffffffffffffffffffffffffffffffffffffffff1614905092915050565b6000809054906101000a900473ffffffffffffffffffffffffffffffffffffffff1673ffffffffffffffffffffffffffffffffffffffff1663ca446dd9826040518263ffffffff167c010000000000000000000000000000000000000000000000000000000002815260040180807f6f776e65720000000000000000000000000000000000000000000000000000008152506020018273ffffffffffffffffffffffffffffffffffffffff1673ffffffffffffffffffffffffffffffffffffffff168152602001915050600060405180830381600087803b151561275157600080fd5b6102c65a03f1151561276257600080fd5b50505050565b60008073ffffffffffffffffffffffffffffffffffffffff1661278a83611dcf565b73ffffffffffffffffffffffffffffffffffffffff161415156127ac57600080fd5b6127b6828461294e565b6127bf83610e79565b90506127cb8383612a6e565b6127d58282612bb6565b6127dd612caa565b505050565b8173ffffffffffffffffffffffffffffffffffffffff1661280282610d4c565b73ffffffffffffffffffffffffffffffffffffffff1614151561282457600080fd5b61282f816000611a69565b60008273ffffffffffffffffffffffffffffffffffffffff167f8c5be1e5ebec7d5bd14f71427d1e84f3dd0314c0f7b2291e5b200ac8c7c3b925836040518082815260200191505060405180910390a35050565b60008060008473ffffffffffffffffffffffffffffffffffffffff166128a885610d4c565b73ffffffffffffffffffffffffffffffffffffffff161415156128ca57600080fd5b6128d384612d91565b92506128f160016128e387610e79565b612e9290919063ffffffff16565b91506128fd8583611c8a565b905061290a84600061294e565b612915858483612eab565b61292185836000612eab565b61292a85612fe3565b612935846000612bb6565b61293f8184612bb6565b61294761312c565b5050505050565b6000809054906101000a900473ffffffffffffffffffffffffffffffffffffffff1673ffffffffffffffffffffffffffffffffffffffff1663ca446dd98360405180807f746f6b656e4f776e657273000000000000000000000000000000000000000000815250600b018281526020019150506040518091039020836040518363ffffffff167c01000000000000000000000000000000000000000000000000000000000281526004018083600019166000191681526020018273ffffffffffffffffffffffffffffffffffffffff1673ffffffffffffffffffffffffffffffffffffffff16815260200192505050600060405180830381600087803b1515612a5657600080fd5b6102c65a03f11515612a6757600080fd5b5050505050565b6000809054906101000a900473ffffffffffffffffffffffffffffffffffffffff1673ffffffffffffffffffffffffffffffffffffffff1663e2a4853a83612ab585610e79565b60405180807f6f776e6564546f6b656e73000000000000000000000000000000000000000000815250600b018373ffffffffffffffffffffffffffffffffffffffff1673ffffffffffffffffffffffffffffffffffffffff166c01000000000000000000000000028152601401828152602001925050506040518091039020836040518363ffffffff167c010000000000000000000000000000000000000000000000000000000002815260040180836000191660001916815260200182815260200192505050600060405180830381600087803b1515612b9557600080fd5b6102c65a03f11515612ba657600080fd5b505050612bb282613213565b5050565b6000809054906101000a900473ffffffffffffffffffffffffffffffffffffffff1673ffffffffffffffffffffffffffffffffffffffff1663e2a4853a8360405180807f6f776e6564546f6b656e73496e646578000000000000000000000000000000008152506010018281526020019150506040518091039020836040518363ffffffff167c010000000000000000000000000000000000000000000000000000000002815260040180836000191660001916815260200182815260200192505050600060405180830381600087803b1515612c9257600080fd5b6102c65a03f11515612ca357600080fd5b5050505050565b6000809054906101000a900473ffffffffffffffffffffffffffffffffffffffff1673ffffffffffffffffffffffffffffffffffffffff1663e2a4853a612d026001612cf4610ad4565b611ff390919063ffffffff16565b6040518263ffffffff167c010000000000000000000000000000000000000000000000000000000002815260040180807f746f74616c546f6b656e73000000000000000000000000000000000000000000815250602001828152602001915050600060405180830381600087803b1515612d7b57600080fd5b6102c65a03f11515612d8c57600080fd5b505050565b60008060009054906101000a900473ffffffffffffffffffffffffffffffffffffffff1673ffffffffffffffffffffffffffffffffffffffff1663bd02d0f58360405180807f6f776e6564546f6b656e73496e6465780000000000000000000000000000000081525060100182815260200191505060405180910390206000604051602001526040518263ffffffff167c0100000000000000000000000000000000000000000000000000000000028152600401808260001916600019168152602001915050602060405180830381600087803b1515612e7057600080fd5b6102c65a03f11515612e8157600080fd5b505050604051805190509050919050565b6000828211151515612ea057fe5b818303905092915050565b6000809054906101000a900473ffffffffffffffffffffffffffffffffffffffff1673ffffffffffffffffffffffffffffffffffffffff1663e2a4853a848460405180807f6f776e6564546f6b656e73000000000000000000000000000000000000000000815250600b018373ffffffffffffffffffffffffffffffffffffffff1673ffffffffffffffffffffffffffffffffffffffff166c01000000000000000000000000028152601401828152602001925050506040518091039020836040518363ffffffff167c010000000000000000000000000000000000000000000000000000000002815260040180836000191660001916815260200182815260200192505050600060405180830381600087803b1515612fca57600080fd5b6102c65a03f11515612fdb57600080fd5b505050505050565b6000809054906101000a900473ffffffffffffffffffffffffffffffffffffffff1673ffffffffffffffffffffffffffffffffffffffff1663e2a4853a8260405180807f6f776e657242616c616e63657300000000000000000000000000000000000000815250600d018273ffffffffffffffffffffffffffffffffffffffff1673ffffffffffffffffffffffffffffffffffffffff166c0100000000000000000000000002815260140191505060405180910390206130b560016130a786610e79565b612e9290919063ffffffff16565b6040518363ffffffff167c010000000000000000000000000000000000000000000000000000000002815260040180836000191660001916815260200182815260200192505050600060405180830381600087803b151561311557600080fd5b6102c65a03f1151561312657600080fd5b50505050565b6000809054906101000a900473ffffffffffffffffffffffffffffffffffffffff1673ffffffffffffffffffffffffffffffffffffffff1663e2a4853a6131846001613176610ad4565b612e9290919063ffffffff16565b6040518263ffffffff167c010000000000000000000000000000000000000000000000000000000002815260040180807f746f74616c546f6b656e73000000000000000000000000000000000000000000815250602001828152602001915050600060405180830381600087803b15156131fd57600080fd5b6102c65a03f1151561320e57600080fd5b505050565b6000809054906101000a900473ffffffffffffffffffffffffffffffffffffffff1673ffffffffffffffffffffffffffffffffffffffff1663e2a4853a8260405180807f6f776e657242616c616e63657300000000000000000000000000000000000000815250600d018273ffffffffffffffffffffffffffffffffffffffff1673ffffffffffffffffffffffffffffffffffffffff166c0100000000000000000000000002815260140191505060405180910390206132e560016132d786610e79565b611ff390919063ffffffff16565b6040518363ffffffff167c010000000000000000000000000000000000000000000000000000000002815260040180836000191660001916815260200182815260200192505050600060405180830381600087803b151561334557600080fd5b6102c65a03f1151561335657600080fd5b50505050565b6020604051908101604052806000815250905600a165627a7a723058207e3fd474615ef8cea46acd4704f7e835f78067418b86f446f851c68bfa70194d0029",
  "source": "pragma solidity ^0.4.18;\n\nimport \"../Upgradability/ERC721TokenKeyed.sol\";\nimport \"../Registry/ApprovableRegistry.sol\";\nimport '../Registry/BotCoinPayableRegistry.sol';\nimport \"../Registry/OwnerRegistry.sol\";\nimport './BotProductRegistryDelegate.sol';\n\n/**\n* @title DeveloperRegistryDelegate\n* @dev Delegate contract that handles functionality for ownership of developer entries. Implements\n*  ERC721 standard, which allows for transferability of developer entries.\n*/\ncontract DeveloperRegistryDelegate is ApprovableRegistry, OwnerRegistry, BotCoinPayableRegistry, ERC721TokenKeyed {\n\n  /**\n  * @dev Event for when developer is added\n  * @param owner address that owns the developer\n  * @param developerId ID of the developer\n  * @param dataHash Hash of data associated with the developer\n  * @param url A URL associated with the developer\n  */\n  event DeveloperAdded(address owner, uint256 developerId, bytes32 dataHash, bytes32 url);\n\n  /**\n  * @dev Constructor for DeveloperRegistryDelegate\n  * @param storage_ address of a BaseStorage contract\n  */\n  function DeveloperRegistryDelegate(BaseStorage storage_) \n    ApprovableRegistry(storage_)\n    BotCoinPayableRegistry(storage_)\n    ERC721TokenKeyed(storage_)\n    public \n    {}\n\n  /**\n  * @dev Returns hash of data for the given developer ID\n  * @param developerId A developer ID\n  * @return bytes32 hash of data\n  */\n  function developerDataHash(uint256 developerId) public view returns (bytes32) {\n    return _storage.getBytes32(keccak256(\"developerDataHash\", developerId));\n  }\n\n  /**\n  * @dev Returns URL for a given developer ID \n  * @param developerId A developer ID\n  * @return bytes32 URL\n  */\n  function developerUrl(uint256 developerId) public view returns (bytes32) {\n    return _storage.getBytes32(keccak256(\"developerUrl\", developerId));\n  }\n\n  /**\n  * @dev Returns ID of the developer entry that is owned by the given address. An address\n  *  can only own one developer entry.\n  * @param owner address of the owner\n  * @return A developer ID, or 0 if the given address does not own a developer entry\n  */\n  function owns(address owner) public view returns (uint256) {\n    return _storage.getUint(keccak256(\"ownerToId\", owner));\n  }\n\n  /**\n  * @dev Returns address that owns the given developer ID.\n  *  Implements Registry.ownerOfEntry() abstract\n  * @param _developerId A developer ID\n  * @return The address that owns the given developer ID\n  */\n  function ownerOfEntry(uint256 _developerId) public view returns (address _owner) {\n    return ownerOf(_developerId);\n  }\n\n  /**\n  * @dev Returns true if the given address is allowed to mint bot products for the given\n  *  developer ID\n  * @param minter Address of minter\n  * @param _developerId A developer ID\n  * @return True if minting is allowed\n  */\n  function mintingAllowed(address minter, uint256 _developerId) public view returns (bool) {\n    return ownerOf(_developerId) == minter && approvalStatus(_developerId) == true;\n  }\n\n  /**\n  * @dev Adds a new developer entry which is owned by the sender address. Defaults to unapproved,\n  *  but can be approved by the contract owner in a subsequent transaction.\n  * @param _data A hash of the data associated with the new developer\n  * @param _url A URL associated with the new developer\n  */\n  function addDeveloper(bytes32 _data, bytes32 _url) public {\n    require(owns(msg.sender) == 0);\n    require(_data != 0x0);\n    require(_url != 0x0);\n\n    uint256 _developerId = totalSupply().add(1);\n\n    setDeveloperDataHash(_developerId, _data);\n    setDeveloperUrl(_developerId, _url);\n    setOwnerId(msg.sender, _developerId);\n\n    transferBotCoin();\n\n    _mint(msg.sender, _developerId);\n\n    DeveloperAdded(msg.sender, _developerId, _data, _url);\n  }\n\n  /**\n  * @dev Private function to set a data hash for a developer\n  * @param developerId A developer ID\n  * @param dataHash bytes32 hash of data associated with the given developer ID\n  */\n  function setDeveloperDataHash(uint256 developerId, bytes32 dataHash) private {\n    _storage.setBytes32(keccak256(\"developerDataHash\", developerId), dataHash);\n  }\n\n  /**\n  * @dev Private function to set a URL for a developer\n  * @param developerId A developer ID\n  * @param url bytes32 URL associated with the given developer ID\n  */\n  function setDeveloperUrl(uint256 developerId, bytes32 url) private {\n    _storage.setBytes32(keccak256(\"developerUrl\", developerId), url);\n  }\n\n  /**\n  * @dev Private function to set the owner for a developer\n  * @param owner Address of the owner\n  * @param developerId A developer ID\n  */\n  function setOwnerId(address owner, uint256 developerId) private {\n    _storage.setUint(keccak256(\"ownerToId\", owner), developerId);\n  }\n\n  /**\n  * @dev Private function to set the address of the bot product registry\n  * @param botProductRegistry Address of a bot product registry\n  */\n  function setBotProductRegistry(BotProductRegistryDelegate botProductRegistry) private {\n    _storage.setAddress(\"botProductRegistry\", botProductRegistry);\n  }\n\n  /**\n  * @dev Checks if the given entry ID exists in the registry.\n  *  Implements ApprovableRegistry.entryExists() abstract.\n  * @param _entryId An entry ID\n  * @return bool indicating if the given entry ID exists\n  */\n  function entryExists(uint256 _entryId) private view returns (bool) {\n    return ownerOf(_entryId) != 0x0;\n  }\n\n}\n",
  "sourcePath": "/Volumes/workspace/_projects/talla/botchain/contracts/Delegates/DeveloperRegistryDelegate.sol",
  "compiler": {
    "name": "solc",
    "version": "0.4.18+commit.9cf6e910.Emscripten.clang"
  },
  "schemaVersion": "1.0.1",
  "updatedAt": "2018-03-12T22:41:54.416Z"
}