{
  "contractName": "BotChain",
  "abi": [
    {
      "constant": false,
      "inputs": [
        {
          "name": "_developer",
          "type": "address"
        }
      ],
      "name": "revokeDeveloperApproval",
      "outputs": [],
      "payable": false,
      "stateMutability": "nonpayable",
      "type": "function"
    },
    {
      "constant": false,
      "inputs": [
        {
          "name": "_developer",
          "type": "address"
        },
        {
          "name": "_data",
          "type": "bytes32"
        }
      ],
      "name": "addDeveloper",
      "outputs": [],
      "payable": false,
      "stateMutability": "nonpayable",
      "type": "function"
    },
    {
      "constant": false,
      "inputs": [
        {
          "name": "_developer",
          "type": "address"
        },
        {
          "name": "_data",
          "type": "bytes32"
        }
      ],
      "name": "updateDeveloper",
      "outputs": [],
      "payable": false,
      "stateMutability": "nonpayable",
      "type": "function"
    },
    {
      "constant": false,
      "inputs": [
        {
          "name": "_botPublicKey",
          "type": "address"
        },
        {
          "name": "_botData",
          "type": "bytes32"
        }
      ],
      "name": "createBot",
      "outputs": [],
      "payable": false,
      "stateMutability": "nonpayable",
      "type": "function"
    },
    {
      "constant": false,
      "inputs": [
        {
          "name": "_botId",
          "type": "uint256"
        },
        {
          "name": "_botPublicKey",
          "type": "address"
        },
        {
          "name": "_botData",
          "type": "bytes32"
        }
      ],
      "name": "updateBot",
      "outputs": [],
      "payable": false,
      "stateMutability": "nonpayable",
      "type": "function"
    },
    {
      "constant": true,
      "inputs": [
        {
          "name": "",
          "type": "address"
        }
      ],
      "name": "developerToData",
      "outputs": [
        {
          "name": "",
          "type": "bytes32"
        }
      ],
      "payable": false,
      "stateMutability": "view",
      "type": "function"
    },
    {
      "constant": true,
      "inputs": [],
      "name": "botOwnershipManager",
      "outputs": [
        {
          "name": "",
          "type": "address"
        }
      ],
      "payable": false,
      "stateMutability": "view",
      "type": "function"
    },
    {
      "constant": true,
      "inputs": [],
      "name": "owner",
      "outputs": [
        {
          "name": "",
          "type": "address"
        }
      ],
      "payable": false,
      "stateMutability": "view",
      "type": "function"
    },
    {
      "constant": false,
      "inputs": [
        {
          "name": "_developer",
          "type": "address"
        }
      ],
      "name": "isApprovedDeveloper",
      "outputs": [
        {
          "name": "",
          "type": "bool"
        }
      ],
      "payable": false,
      "stateMutability": "nonpayable",
      "type": "function"
    },
    {
      "constant": true,
      "inputs": [
        {
          "name": "",
          "type": "address"
        }
      ],
      "name": "developerToApproved",
      "outputs": [
        {
          "name": "",
          "type": "bool"
        }
      ],
      "payable": false,
      "stateMutability": "view",
      "type": "function"
    },
    {
      "constant": true,
      "inputs": [
        {
          "name": "",
          "type": "uint256"
        }
      ],
      "name": "developers",
      "outputs": [
        {
          "name": "",
          "type": "address"
        }
      ],
      "payable": false,
      "stateMutability": "view",
      "type": "function"
    },
    {
      "constant": false,
      "inputs": [
        {
          "name": "newOwner",
          "type": "address"
        }
      ],
      "name": "transferOwnership",
      "outputs": [],
      "payable": false,
      "stateMutability": "nonpayable",
      "type": "function"
    },
    {
      "inputs": [],
      "payable": false,
      "stateMutability": "nonpayable",
      "type": "constructor"
    },
    {
      "anonymous": false,
      "inputs": [
        {
          "indexed": false,
          "name": "developer",
          "type": "address"
        },
        {
          "indexed": false,
          "name": "data",
          "type": "bytes32"
        }
      ],
      "name": "DeveloperAdded",
      "type": "event"
    },
    {
      "anonymous": false,
      "inputs": [
        {
          "indexed": false,
          "name": "developer",
          "type": "address"
        },
        {
          "indexed": false,
          "name": "data",
          "type": "bytes32"
        }
      ],
      "name": "DeveloperUpdated",
      "type": "event"
    },
    {
      "anonymous": false,
      "inputs": [
        {
          "indexed": false,
          "name": "developer",
          "type": "address"
        }
      ],
      "name": "DeveloperApprovalRevoked",
      "type": "event"
    },
    {
      "anonymous": false,
      "inputs": [
        {
          "indexed": true,
          "name": "previousOwner",
          "type": "address"
        },
        {
          "indexed": true,
          "name": "newOwner",
          "type": "address"
        }
      ],
      "name": "OwnershipTransferred",
      "type": "event"
    }
  ],
  "bytecode": "0x6060604052341561000f57600080fd5b336000806101000a81548173ffffffffffffffffffffffffffffffffffffffff021916908373ffffffffffffffffffffffffffffffffffffffff1602179055503061005861014c565b808273ffffffffffffffffffffffffffffffffffffffff1673ffffffffffffffffffffffffffffffffffffffff168152602001915050604051809103906000f08015156100a457600080fd5b600160006101000a81548173ffffffffffffffffffffffffffffffffffffffff021916908373ffffffffffffffffffffffffffffffffffffffff160217905550600480548060010182816100f8919061015d565b9160005260206000209001600080909190916101000a81548173ffffffffffffffffffffffffffffffffffffffff021916908373ffffffffffffffffffffffffffffffffffffffff160217905550506101ae565b604051611ec1806200100b83390190565b815481835581811511610184578183600052602060002091820191016101839190610189565b5b505050565b6101ab91905b808211156101a757600081600090555060010161018f565b5090565b90565b610e4d80620001be6000396000f3006060604052600436106100b9576000357c0100000000000000000000000000000000000000000000000000000000900463ffffffff16806220eb94146100be5780632f9886b5146100f75780633cfd671d1461013d5780633f5f46591461018357806364b2878a146101c95780636ad14e0e1461021857806382b0b2501461026d5780638da5cb5b146102c2578063b15175a814610317578063c784a23514610368578063eff25cd6146103b9578063f2fde38b1461041c575b600080fd5b34156100c957600080fd5b6100f5600480803573ffffffffffffffffffffffffffffffffffffffff16906020019091905050610455565b005b341561010257600080fd5b61013b600480803573ffffffffffffffffffffffffffffffffffffffff16906020019091908035600019169060200190919050506105c6565b005b341561014857600080fd5b610181600480803573ffffffffffffffffffffffffffffffffffffffff16906020019091908035600019169060200190919050506107d8565b005b341561018e57600080fd5b6101c7600480803573ffffffffffffffffffffffffffffffffffffffff169060200190919080356000191690602001909190505061092f565b005b34156101d457600080fd5b610216600480803590602001909190803573ffffffffffffffffffffffffffffffffffffffff1690602001909190803560001916906020019091905050610a5b565b005b341561022357600080fd5b61024f600480803573ffffffffffffffffffffffffffffffffffffffff16906020019091905050610b5c565b60405180826000191660001916815260200191505060405180910390f35b341561027857600080fd5b610280610b74565b604051808273ffffffffffffffffffffffffffffffffffffffff1673ffffffffffffffffffffffffffffffffffffffff16815260200191505060405180910390f35b34156102cd57600080fd5b6102d5610b9a565b604051808273ffffffffffffffffffffffffffffffffffffffff1673ffffffffffffffffffffffffffffffffffffffff16815260200191505060405180910390f35b341561032257600080fd5b61034e600480803573ffffffffffffffffffffffffffffffffffffffff16906020019091905050610bbf565b604051808215151515815260200191505060405180910390f35b341561037357600080fd5b61039f600480803573ffffffffffffffffffffffffffffffffffffffff16906020019091905050610c1c565b604051808215151515815260200191505060405180910390f35b34156103c457600080fd5b6103da6004808035906020019091905050610c3c565b604051808273ffffffffffffffffffffffffffffffffffffffff1673ffffffffffffffffffffffffffffffffffffffff16815260200191505060405180910390f35b341561042757600080fd5b610453600480803573ffffffffffffffffffffffffffffffffffffffff16906020019091905050610c7b565b005b6000809054906101000a900473ffffffffffffffffffffffffffffffffffffffff1673ffffffffffffffffffffffffffffffffffffffff163373ffffffffffffffffffffffffffffffffffffffff161415156104b057600080fd5b600260008273ffffffffffffffffffffffffffffffffffffffff1673ffffffffffffffffffffffffffffffffffffffff16815260200190815260200160002060009054906101000a900460ff16151561050857600080fd5b6000600260008373ffffffffffffffffffffffffffffffffffffffff1673ffffffffffffffffffffffffffffffffffffffff16815260200190815260200160002060006101000a81548160ff0219169083151502179055507f64daa130fb480da23870a5ebc794786b1a7366bb83236f11422e41105df7031981604051808273ffffffffffffffffffffffffffffffffffffffff1673ffffffffffffffffffffffffffffffffffffffff16815260200191505060405180910390a150565b6000809054906101000a900473ffffffffffffffffffffffffffffffffffffffff1673ffffffffffffffffffffffffffffffffffffffff163373ffffffffffffffffffffffffffffffffffffffff1614151561062157600080fd5b60008273ffffffffffffffffffffffffffffffffffffffff161415151561064757600080fd5b600060010281600019161415151561065e57600080fd5b6001600260008473ffffffffffffffffffffffffffffffffffffffff1673ffffffffffffffffffffffffffffffffffffffff16815260200190815260200160002060006101000a81548160ff02191690831515021790555080600360008473ffffffffffffffffffffffffffffffffffffffff1673ffffffffffffffffffffffffffffffffffffffff1681526020019081526020016000208160001916905550600480548060010182816107129190610dd0565b9160005260206000209001600084909190916101000a81548173ffffffffffffffffffffffffffffffffffffffff021916908373ffffffffffffffffffffffffffffffffffffffff160217905550507faa975666a71db075dd3567b49fc6045ec8075a2eb9d10ea267d3561e3fe271908282604051808373ffffffffffffffffffffffffffffffffffffffff1673ffffffffffffffffffffffffffffffffffffffff16815260200182600019166000191681526020019250505060405180910390a15050565b6000809054906101000a900473ffffffffffffffffffffffffffffffffffffffff1673ffffffffffffffffffffffffffffffffffffffff163373ffffffffffffffffffffffffffffffffffffffff1614151561083357600080fd5b60008273ffffffffffffffffffffffffffffffffffffffff161415151561085957600080fd5b600060010281600019161415151561087057600080fd5b80600360008473ffffffffffffffffffffffffffffffffffffffff1673ffffffffffffffffffffffffffffffffffffffff16815260200190815260200160002081600019169055507f88579db1981f7ac7b08d54f863bb2f7d13b094a1ef60f0960721430f47cc8f768282604051808373ffffffffffffffffffffffffffffffffffffffff1673ffffffffffffffffffffffffffffffffffffffff16815260200182600019166000191681526020019250505060405180910390a15050565b61093833610bbf565b151561094357600080fd5b600160009054906101000a900473ffffffffffffffffffffffffffffffffffffffff1673ffffffffffffffffffffffffffffffffffffffff1663349fb0b33384846040518463ffffffff167c0100000000000000000000000000000000000000000000000000000000028152600401808473ffffffffffffffffffffffffffffffffffffffff1673ffffffffffffffffffffffffffffffffffffffff1681526020018373ffffffffffffffffffffffffffffffffffffffff1673ffffffffffffffffffffffffffffffffffffffff16815260200182600019166000191681526020019350505050600060405180830381600087803b1515610a4357600080fd5b6102c65a03f11515610a5457600080fd5b5050505050565b610a6433610bbf565b1515610a6f57600080fd5b600160009054906101000a900473ffffffffffffffffffffffffffffffffffffffff1673ffffffffffffffffffffffffffffffffffffffff166364b2878a8484846040518463ffffffff167c0100000000000000000000000000000000000000000000000000000000028152600401808481526020018373ffffffffffffffffffffffffffffffffffffffff1673ffffffffffffffffffffffffffffffffffffffff16815260200182600019166000191681526020019350505050600060405180830381600087803b1515610b4357600080fd5b6102c65a03f11515610b5457600080fd5b505050505050565b60036020528060005260406000206000915090505481565b600160009054906101000a900473ffffffffffffffffffffffffffffffffffffffff1681565b6000809054906101000a900473ffffffffffffffffffffffffffffffffffffffff1681565b600060011515600260008473ffffffffffffffffffffffffffffffffffffffff1673ffffffffffffffffffffffffffffffffffffffff16815260200190815260200160002060009054906101000a900460ff161515149050919050565b60026020528060005260406000206000915054906101000a900460ff1681565b600481815481101515610c4b57fe5b90600052602060002090016000915054906101000a900473ffffffffffffffffffffffffffffffffffffffff1681565b6000809054906101000a900473ffffffffffffffffffffffffffffffffffffffff1673ffffffffffffffffffffffffffffffffffffffff163373ffffffffffffffffffffffffffffffffffffffff16141515610cd657600080fd5b600073ffffffffffffffffffffffffffffffffffffffff168173ffffffffffffffffffffffffffffffffffffffff1614151515610d1257600080fd5b8073ffffffffffffffffffffffffffffffffffffffff166000809054906101000a900473ffffffffffffffffffffffffffffffffffffffff1673ffffffffffffffffffffffffffffffffffffffff167f8be0079c531659141344cd1fd0a4f28419497f9722a3daafe3b4186f6b6457e060405160405180910390a3806000806101000a81548173ffffffffffffffffffffffffffffffffffffffff021916908373ffffffffffffffffffffffffffffffffffffffff16021790555050565b815481835581811511610df757818360005260206000209182019101610df69190610dfc565b5b505050565b610e1e91905b80821115610e1a576000816000905550600101610e02565b5090565b905600a165627a7a7230582037a9afded026d53b0953f77a5fcc227218c7fa8ff6e8e17194e6c2b821361b2e0029606060405260008060146101000a81548160ff02191690831515021790555034156200002a57600080fd5b60405160208062001ec183398101604052808051906020019091905050336000806101000a81548173ffffffffffffffffffffffffffffffffffffffff021916908373ffffffffffffffffffffffffffffffffffffffff16021790555080600760006101000a81548173ffffffffffffffffffffffffffffffffffffffff021916908373ffffffffffffffffffffffffffffffffffffffff16021790555060068054806001018281620000de919062000188565b916000526020600020906002020160006040805190810160405280600073ffffffffffffffffffffffffffffffffffffffff168152602001600060010260001916815250909190915060008201518160000160006101000a81548173ffffffffffffffffffffffffffffffffffffffff021916908373ffffffffffffffffffffffffffffffffffffffff16021790555060208201518160010190600019169055505050506200020e565b815481835581811511620001b857600202816002028360005260206000209182019101620001b79190620001bd565b5b505050565b6200020b91905b808211156200020757600080820160006101000a81549073ffffffffffffffffffffffffffffffffffffffff0219169055600182016000905550600201620001c4565b5090565b90565b611ca3806200021e6000396000f300606060405260043610610112576000357c0100000000000000000000000000000000000000000000000000000000900463ffffffff168063095ea7b31461011757806318160ddd1461015957806323b872dd14610182578063349fb0b3146101e35780633f4ba83a146102485780635c975abb1461025d5780635f70d9ac1461028a5780636352211e1461032f57806364b2878a1461039257806370a08231146103e15780638456cb591461042e578063885e88ed146104435780638da5cb5b1461047e578063a9059cbb146104d3578063bc20819614610515578063c77deeaf14610538578063cdd27c8b14610585578063d7e0a8fa146105da578063d9695a29146105fd578063f2fde38b1461064e575b600080fd5b341561012257600080fd5b610157600480803573ffffffffffffffffffffffffffffffffffffffff16906020019091908035906020019091905050610687565b005b341561016457600080fd5b61016c610824565b6040518082815260200191505060405180910390f35b341561018d57600080fd5b6101e1600480803573ffffffffffffffffffffffffffffffffffffffff1690602001909190803573ffffffffffffffffffffffffffffffffffffffff16906020019091908035906020019091905050610834565b005b34156101ee57600080fd5b610246600480803573ffffffffffffffffffffffffffffffffffffffff1690602001909190803573ffffffffffffffffffffffffffffffffffffffff169060200190919080356000191690602001909190505061088a565b005b341561025357600080fd5b61025b610c01565b005b341561026857600080fd5b610270610cbf565b604051808215151515815260200191505060405180910390f35b341561029557600080fd5b6102ab6004808035906020019091905050610cd2565b604051808473ffffffffffffffffffffffffffffffffffffffff1673ffffffffffffffffffffffffffffffffffffffff1681526020018373ffffffffffffffffffffffffffffffffffffffff1673ffffffffffffffffffffffffffffffffffffffff1681526020018260001916600019168152602001935050505060405180910390f35b341561033a57600080fd5b6103506004808035906020019091905050610d38565b604051808273ffffffffffffffffffffffffffffffffffffffff1673ffffffffffffffffffffffffffffffffffffffff16815260200191505060405180910390f35b341561039d57600080fd5b6103df600480803590602001909190803573ffffffffffffffffffffffffffffffffffffffff1690602001909190803560001916906020019091905050610db1565b005b34156103ec57600080fd5b610418600480803573ffffffffffffffffffffffffffffffffffffffff1690602001909190505061105d565b6040518082815260200191505060405180910390f35b341561043957600080fd5b6104416110a6565b005b341561044e57600080fd5b6104646004808035906020019091905050611166565b604051808215151515815260200191505060405180910390f35b341561048957600080fd5b6104916111fe565b604051808273ffffffffffffffffffffffffffffffffffffffff1673ffffffffffffffffffffffffffffffffffffffff16815260200191505060405180910390f35b34156104de57600080fd5b610513600480803573ffffffffffffffffffffffffffffffffffffffff16906020019091908035906020019091905050611223565b005b341561052057600080fd5b6105366004808035906020019091905050611263565b005b341561054357600080fd5b61056f600480803573ffffffffffffffffffffffffffffffffffffffff16906020019091905050611391565b6040518082815260200191505060405180910390f35b341561059057600080fd5b6105986113f3565b604051808273ffffffffffffffffffffffffffffffffffffffff1673ffffffffffffffffffffffffffffffffffffffff16815260200191505060405180910390f35b34156105e557600080fd5b6105fb6004808035906020019091905050611419565b005b341561060857600080fd5b610634600480803573ffffffffffffffffffffffffffffffffffffffff16906020019091905050611548565b604051808215151515815260200191505060405180910390f35b341561065957600080fd5b610685600480803573ffffffffffffffffffffffffffffffffffffffff16906020019091905050611593565b005b600060149054906101000a900460ff161515156106a357600080fd5b600073ffffffffffffffffffffffffffffffffffffffff168273ffffffffffffffffffffffffffffffffffffffff16141515156106df57600080fd5b3073ffffffffffffffffffffffffffffffffffffffff168273ffffffffffffffffffffffffffffffffffffffff161415151561071a57600080fd5b61072433826116e8565b151561072f57600080fd5b816004600083815260200190815260200160002060006101000a81548173ffffffffffffffffffffffffffffffffffffffff021916908373ffffffffffffffffffffffffffffffffffffffff1602179055507f8c5be1e5ebec7d5bd14f71427d1e84f3dd0314c0f7b2291e5b200ac8c7c3b925338383604051808473ffffffffffffffffffffffffffffffffffffffff1673ffffffffffffffffffffffffffffffffffffffff1681526020018373ffffffffffffffffffffffffffffffffffffffff1673ffffffffffffffffffffffffffffffffffffffff168152602001828152602001935050505060405180910390a15050565b6000600160068054905003905090565b600060149054906101000a900460ff1615151561085057600080fd5b61085a3382611754565b151561086557600080fd5b61086f83826116e8565b151561087a57600080fd5b6108858383836117c0565b505050565b610892611bc4565b60008060009054906101000a900473ffffffffffffffffffffffffffffffffffffffff1673ffffffffffffffffffffffffffffffffffffffff163373ffffffffffffffffffffffffffffffffffffffff161415156108ef57600080fd5b60008573ffffffffffffffffffffffffffffffffffffffff161415151561091557600080fd5b60008473ffffffffffffffffffffffffffffffffffffffff161415151561093b57600080fd5b600060010283600019161415151561095257600080fd5b61095b84611548565b15151561096757600080fd5b60408051908101604052808573ffffffffffffffffffffffffffffffffffffffff168152602001846000191681525091506001600680548060010182816109ae9190611bf7565b9160005260206000209060020201600085909190915060008201518160000160006101000a81548173ffffffffffffffffffffffffffffffffffffffff021916908373ffffffffffffffffffffffffffffffffffffffff160217905550602082015181600101906000191690555050039050846002600083815260200190815260200160002060006101000a81548173ffffffffffffffffffffffffffffffffffffffff021916908373ffffffffffffffffffffffffffffffffffffffff16021790555080600360008673ffffffffffffffffffffffffffffffffffffffff1673ffffffffffffffffffffffffffffffffffffffff16815260200190815260200160002081905550610b0860018060008873ffffffffffffffffffffffffffffffffffffffff1673ffffffffffffffffffffffffffffffffffffffff16815260200190815260200160002054611b0290919063ffffffff16565b600160008773ffffffffffffffffffffffffffffffffffffffff1673ffffffffffffffffffffffffffffffffffffffff168152602001908152602001600020819055507f7a59ec91b9fad5350f0adf0a8842c7399fbec5e13059148969d2ab1b13a4fad681868686604051808581526020018473ffffffffffffffffffffffffffffffffffffffff1673ffffffffffffffffffffffffffffffffffffffff1681526020018373ffffffffffffffffffffffffffffffffffffffff1673ffffffffffffffffffffffffffffffffffffffff168152602001826000191660001916815260200194505050505060405180910390a15050505050565b6000809054906101000a900473ffffffffffffffffffffffffffffffffffffffff1673ffffffffffffffffffffffffffffffffffffffff163373ffffffffffffffffffffffffffffffffffffffff16141515610c5c57600080fd5b600060149054906101000a900460ff161515610c7757600080fd5b60008060146101000a81548160ff0219169083151502179055507f7805862f689e2f13df9f062ff482ad3ad112aca9e0847911ed832e158c525b3360405160405180910390a1565b600060149054906101000a900460ff1681565b600080600080600685815481101515610ce757fe5b90600052602060002090600202019050610d0085611b20565b93508060000160009054906101000a900473ffffffffffffffffffffffffffffffffffffffff16925080600101549150509193909250565b60006002600083815260200190815260200160002060009054906101000a900473ffffffffffffffffffffffffffffffffffffffff169050600073ffffffffffffffffffffffffffffffffffffffff168173ffffffffffffffffffffffffffffffffffffffff1614151515610dac57600080fd5b919050565b60008060009054906101000a900473ffffffffffffffffffffffffffffffffffffffff1673ffffffffffffffffffffffffffffffffffffffff163373ffffffffffffffffffffffffffffffffffffffff16141515610e0e57600080fd5b600084118015610e22575060068054905084105b1515610e2d57600080fd5b60008373ffffffffffffffffffffffffffffffffffffffff1614151515610e5357600080fd5b6000600102826000191614151515610e6a57600080fd5b600684815481101515610e7957fe5b906000526020600020906002020190506000600360008360000160009054906101000a900473ffffffffffffffffffffffffffffffffffffffff1673ffffffffffffffffffffffffffffffffffffffff1673ffffffffffffffffffffffffffffffffffffffff1681526020019081526020016000208190555060408051908101604052808473ffffffffffffffffffffffffffffffffffffffff1681526020018360001916815250600685815481101515610f3057fe5b906000526020600020906002020160008201518160000160006101000a81548173ffffffffffffffffffffffffffffffffffffffff021916908373ffffffffffffffffffffffffffffffffffffffff1602179055506020820151816001019060001916905590505083600360008573ffffffffffffffffffffffffffffffffffffffff1673ffffffffffffffffffffffffffffffffffffffff168152602001908152602001600020819055507fd2cb0921c27e5d3119b2569896c10841e2a1d4aed2450433f6106ca9b489e392848484604051808481526020018373ffffffffffffffffffffffffffffffffffffffff1673ffffffffffffffffffffffffffffffffffffffff1681526020018260001916600019168152602001935050505060405180910390a150505050565b6000600160008373ffffffffffffffffffffffffffffffffffffffff1673ffffffffffffffffffffffffffffffffffffffff168152602001908152602001600020549050919050565b6000809054906101000a900473ffffffffffffffffffffffffffffffffffffffff1673ffffffffffffffffffffffffffffffffffffffff163373ffffffffffffffffffffffffffffffffffffffff1614151561110157600080fd5b600060149054906101000a900460ff1615151561111d57600080fd5b6001600060146101000a81548160ff0219169083151502179055507f6985a02210a168e66602d3235cb6db0e70f92b3ba4d376a33c0f3d9434bff62560405160405180910390a1565b6000808211151561117657600080fd5b60006002600084815260200190815260200160002060009054906101000a900473ffffffffffffffffffffffffffffffffffffffff1673ffffffffffffffffffffffffffffffffffffffff16141515156111cf57600080fd5b600015156005600084815260200190815260200160002060009054906101000a900460ff161515149050919050565b6000809054906101000a900473ffffffffffffffffffffffffffffffffffffffff1681565b600060149054906101000a900460ff1615151561123f57600080fd5b61124933826116e8565b151561125457600080fd5b61125f3383836117c0565b5050565b6000809054906101000a900473ffffffffffffffffffffffffffffffffffffffff1673ffffffffffffffffffffffffffffffffffffffff163373ffffffffffffffffffffffffffffffffffffffff161415156112be57600080fd5b60006002600083815260200190815260200160002060009054906101000a900473ffffffffffffffffffffffffffffffffffffffff1673ffffffffffffffffffffffffffffffffffffffff161415151561131757600080fd5b61132081611166565b151561132b57600080fd5b60016005600083815260200190815260200160002060006101000a81548160ff0219169083151502179055507f2d5be7b754f445d49b1e7d837ebcbc8e58072de22e56052c6dfd5e4fef758900816040518082815260200191505060405180910390a150565b60008061139d83611548565b15156113a857600080fd5b600360008473ffffffffffffffffffffffffffffffffffffffff1673ffffffffffffffffffffffffffffffffffffffff16815260200190815260200160002054905080915050919050565b600760009054906101000a900473ffffffffffffffffffffffffffffffffffffffff1681565b6000809054906101000a900473ffffffffffffffffffffffffffffffffffffffff1673ffffffffffffffffffffffffffffffffffffffff163373ffffffffffffffffffffffffffffffffffffffff1614151561147457600080fd5b60006002600083815260200190815260200160002060009054906101000a900473ffffffffffffffffffffffffffffffffffffffff1673ffffffffffffffffffffffffffffffffffffffff16141515156114cd57600080fd5b6114d681611166565b1515156114e257600080fd5b60006005600083815260200190815260200160002060006101000a81548160ff0219169083151502179055507fa8e898dd32ecd663e3635545e83f268bf8d430f94d6f59507a1677f63c0cb638816040518082815260200191505060405180910390a150565b600080600360008473ffffffffffffffffffffffffffffffffffffffff1673ffffffffffffffffffffffffffffffffffffffff16815260200190815260200160002054119050919050565b6000809054906101000a900473ffffffffffffffffffffffffffffffffffffffff1673ffffffffffffffffffffffffffffffffffffffff163373ffffffffffffffffffffffffffffffffffffffff161415156115ee57600080fd5b600073ffffffffffffffffffffffffffffffffffffffff168173ffffffffffffffffffffffffffffffffffffffff161415151561162a57600080fd5b8073ffffffffffffffffffffffffffffffffffffffff166000809054906101000a900473ffffffffffffffffffffffffffffffffffffffff1673ffffffffffffffffffffffffffffffffffffffff167f8be0079c531659141344cd1fd0a4f28419497f9722a3daafe3b4186f6b6457e060405160405180910390a3806000806101000a81548173ffffffffffffffffffffffffffffffffffffffff021916908373ffffffffffffffffffffffffffffffffffffffff16021790555050565b60008273ffffffffffffffffffffffffffffffffffffffff166002600084815260200190815260200160002060009054906101000a900473ffffffffffffffffffffffffffffffffffffffff1673ffffffffffffffffffffffffffffffffffffffff1614905092915050565b60008273ffffffffffffffffffffffffffffffffffffffff166004600084815260200190815260200160002060009054906101000a900473ffffffffffffffffffffffffffffffffffffffff1673ffffffffffffffffffffffffffffffffffffffff1614905092915050565b600073ffffffffffffffffffffffffffffffffffffffff168273ffffffffffffffffffffffffffffffffffffffff16141515156117fc57600080fd5b3073ffffffffffffffffffffffffffffffffffffffff168273ffffffffffffffffffffffffffffffffffffffff161415151561183757600080fd5b600760009054906101000a900473ffffffffffffffffffffffffffffffffffffffff1673ffffffffffffffffffffffffffffffffffffffff1663b15175a8836000604051602001526040518263ffffffff167c0100000000000000000000000000000000000000000000000000000000028152600401808273ffffffffffffffffffffffffffffffffffffffff1673ffffffffffffffffffffffffffffffffffffffff168152602001915050602060405180830381600087803b15156118fc57600080fd5b6102c65a03f1151561190d57600080fd5b50505060405180519050151561192257600080fd5b61192b81611166565b151561193657600080fd5b600160008373ffffffffffffffffffffffffffffffffffffffff1673ffffffffffffffffffffffffffffffffffffffff16815260200190815260200160002060008154809291906001019190505550816002600083815260200190815260200160002060006101000a81548173ffffffffffffffffffffffffffffffffffffffff021916908373ffffffffffffffffffffffffffffffffffffffff160217905550600073ffffffffffffffffffffffffffffffffffffffff168373ffffffffffffffffffffffffffffffffffffffff16141515611a5e57600160008473ffffffffffffffffffffffffffffffffffffffff1673ffffffffffffffffffffffffffffffffffffffff16815260200190815260200160002060008154809291906001900391905055505b7fddf252ad1be2c89b69c2b068fc378daa952ba7f163c4a11628f55a4df523b3ef838383604051808473ffffffffffffffffffffffffffffffffffffffff1673ffffffffffffffffffffffffffffffffffffffff1681526020018373ffffffffffffffffffffffffffffffffffffffff1673ffffffffffffffffffffffffffffffffffffffff168152602001828152602001935050505060405180910390a1505050565b6000808284019050838110151515611b1657fe5b8091505092915050565b60008082111515611b3057600080fd5b60006002600084815260200190815260200160002060009054906101000a900473ffffffffffffffffffffffffffffffffffffffff1673ffffffffffffffffffffffffffffffffffffffff1614151515611b8957600080fd5b6002600083815260200190815260200160002060009054906101000a900473ffffffffffffffffffffffffffffffffffffffff169050919050565b6040805190810160405280600073ffffffffffffffffffffffffffffffffffffffff168152602001600080191681525090565b815481835581811511611c2457600202816002028360005260206000209182019101611c239190611c29565b5b505050565b611c7491905b80821115611c7057600080820160006101000a81549073ffffffffffffffffffffffffffffffffffffffff0219169055600182016000905550600201611c2f565b5090565b905600a165627a7a72305820bbe6dab00b3290c13622e6be42fa519711bf613f30dfba522280aebe4854ca6e0029",
  "source": "pragma solidity ^0.4.18;\n\nimport 'zeppelin-solidity/contracts/ownership/Ownable.sol';\nimport './BotOwnershipManager.sol';\n\n/// @title BotChain\n/// @dev Contract for managing ownership of BotChain resources\ncontract BotChain is Ownable {\n\n  event DeveloperAdded(address developer, bytes32 data);\n  event DeveloperUpdated(address developer, bytes32 data);\n  event DeveloperApprovalRevoked(address developer);\n\n  /// @dev The address of the BotOwnershipManager contract (ERC-721 implementation)\n  ///  that handles ownership and transfer of Bots.\n  BotOwnershipManager public botOwnershipManager;\n\n  /// @dev A mapping of developer addresses to a boolean that is `true` if\n  ///  the developer is approved, and `false` if not.\n  mapping(address => bool) public developerToApproved;\n\n  /// @dev A mapping of developer addresses to a hash of related data.\n  mapping(address => bytes32) public developerToData;\n\n  /// @dev An array of developer addresses.\n  address[] public developers;\n\n  /// @dev Constructor for BotChain contracts. Creates a new BotOwnershipManager contract,\n  ///  which it owns by default.\n  function BotChain() public {\n    botOwnershipManager = new BotOwnershipManager(this);\n    developers.push(0x0);\n  }\n\n  /// @dev Checks if a developer is approved\n  /// @param _developer Address of developer to check for approval\n  function isApprovedDeveloper(address _developer) public returns(bool) {\n    return developerToApproved[_developer] == true;\n  }\n\n  /// @dev Adds a new developer. Only callable by owner.\n  /// @param _developer The address of the developer to add\n  /// @param _data A hash of the data associated with this developer\n  function addDeveloper(address _developer, bytes32 _data) onlyOwner external {\n    require(_developer != 0x0);\n    require(_data != 0x0);\n\n    developerToApproved[_developer] = true;\n    developerToData[_developer] = _data;\n    developers.push(_developer);\n\n    DeveloperAdded(_developer, _data);\n  }\n\n  /// @dev Updates an existing developer. Only callable by owner.\n  /// @param _developer The address of the developer to update\n  /// @param _data A hash of the data associated with this developer\n  function updateDeveloper(address _developer, bytes32 _data) onlyOwner external {\n    require(_developer != 0x0);\n    require(_data != 0x0);\n\n    developerToData[_developer] = _data;\n\n    DeveloperUpdated(_developer, _data);\n  }\n\n  /// @dev Revokes approval for an existing developer. Only callable by owner.\n  /// @param _developer The address of the developer to revoke approval for.\n  function revokeDeveloperApproval(address _developer) onlyOwner external {\n    require(developerToApproved[_developer]);\n\n    developerToApproved[_developer] = false;\n\n    DeveloperApprovalRevoked(_developer);\n  }\n  \n  /// @dev Creates a new bot. The new bot is owned by msg.sender, which needs\n  ///  to be an approved developer.\n  /// @param _botPublicKey The public key of the new Bot\n  /// @param _botData A hash of the data associated with this Bot\n  function createBot(address _botPublicKey, bytes32 _botData) external {\n    require(isApprovedDeveloper(msg.sender));\n    \n    botOwnershipManager.createBot(msg.sender, _botPublicKey, _botData);\n  }\n  \n  /// @dev Updates an existing bot.\n  /// @param _botPublicKey The public key of the new Bot\n  /// @param _botData A hash of the data associated with this Bot\n  function updateBot(uint256 _botId, address _botPublicKey, bytes32 _botData) external {\n    require(isApprovedDeveloper(msg.sender));\n    \n    botOwnershipManager.updateBot(_botId, _botPublicKey, _botData);\n  }\n\n}\n",
  "sourcePath": "/srv/app/contracts/BotChain.sol",
  "compiler": {
    "name": "solc",
    "version": "0.4.18+commit.9cf6e910.Emscripten.clang"
  },
  "schemaVersion": "1.0.1",
  "updatedAt": "2018-01-08T21:18:48.550Z"
}